{
  "contractName": "NFCool",
  "abi": [
    {
      "inputs": [
        {
          "internalType": "string",
          "name": "_brandName",
          "type": "string"
        }
      ],
      "stateMutability": "nonpayable",
      "type": "constructor"
    },
    {
      "anonymous": false,
      "inputs": [
        {
          "indexed": true,
          "internalType": "address",
          "name": "account",
          "type": "address"
        },
        {
          "indexed": true,
          "internalType": "address",
          "name": "operator",
          "type": "address"
        },
        {
          "indexed": false,
          "internalType": "bool",
          "name": "approved",
          "type": "bool"
        }
      ],
      "name": "ApprovalForAll",
      "type": "event"
    },
    {
      "anonymous": false,
      "inputs": [
        {
          "indexed": true,
          "internalType": "bytes32",
          "name": "role",
          "type": "bytes32"
        },
        {
          "indexed": true,
          "internalType": "bytes32",
          "name": "previousAdminRole",
          "type": "bytes32"
        },
        {
          "indexed": true,
          "internalType": "bytes32",
          "name": "newAdminRole",
          "type": "bytes32"
        }
      ],
      "name": "RoleAdminChanged",
      "type": "event"
    },
    {
      "anonymous": false,
      "inputs": [
        {
          "indexed": true,
          "internalType": "bytes32",
          "name": "role",
          "type": "bytes32"
        },
        {
          "indexed": true,
          "internalType": "address",
          "name": "account",
          "type": "address"
        },
        {
          "indexed": true,
          "internalType": "address",
          "name": "sender",
          "type": "address"
        }
      ],
      "name": "RoleGranted",
      "type": "event"
    },
    {
      "anonymous": false,
      "inputs": [
        {
          "indexed": true,
          "internalType": "bytes32",
          "name": "role",
          "type": "bytes32"
        },
        {
          "indexed": true,
          "internalType": "address",
          "name": "account",
          "type": "address"
        },
        {
          "indexed": true,
          "internalType": "address",
          "name": "sender",
          "type": "address"
        }
      ],
      "name": "RoleRevoked",
      "type": "event"
    },
    {
      "anonymous": false,
      "inputs": [
        {
          "indexed": true,
          "internalType": "address",
          "name": "operator",
          "type": "address"
        },
        {
          "indexed": true,
          "internalType": "address",
          "name": "from",
          "type": "address"
        },
        {
          "indexed": true,
          "internalType": "address",
          "name": "to",
          "type": "address"
        },
        {
          "indexed": false,
          "internalType": "uint256[]",
          "name": "ids",
          "type": "uint256[]"
        },
        {
          "indexed": false,
          "internalType": "uint256[]",
          "name": "values",
          "type": "uint256[]"
        }
      ],
      "name": "TransferBatch",
      "type": "event"
    },
    {
      "anonymous": false,
      "inputs": [
        {
          "indexed": true,
          "internalType": "address",
          "name": "operator",
          "type": "address"
        },
        {
          "indexed": true,
          "internalType": "address",
          "name": "from",
          "type": "address"
        },
        {
          "indexed": true,
          "internalType": "address",
          "name": "to",
          "type": "address"
        },
        {
          "indexed": false,
          "internalType": "uint256",
          "name": "id",
          "type": "uint256"
        },
        {
          "indexed": false,
          "internalType": "uint256",
          "name": "value",
          "type": "uint256"
        }
      ],
      "name": "TransferSingle",
      "type": "event"
    },
    {
      "anonymous": false,
      "inputs": [
        {
          "indexed": false,
          "internalType": "string",
          "name": "value",
          "type": "string"
        },
        {
          "indexed": true,
          "internalType": "uint256",
          "name": "id",
          "type": "uint256"
        }
      ],
      "name": "URI",
      "type": "event"
    },
    {
      "inputs": [],
      "name": "DEFAULT_ADMIN_ROLE",
      "outputs": [
        {
          "internalType": "bytes32",
          "name": "",
          "type": "bytes32"
        }
      ],
      "stateMutability": "view",
      "type": "function"
    },
    {
      "inputs": [],
      "name": "MINTER_ROLE",
      "outputs": [
        {
          "internalType": "bytes32",
          "name": "",
          "type": "bytes32"
        }
      ],
      "stateMutability": "view",
      "type": "function"
    },
    {
      "inputs": [
        {
          "internalType": "address",
          "name": "account",
          "type": "address"
        },
        {
          "internalType": "uint256",
          "name": "id",
          "type": "uint256"
        }
      ],
      "name": "balanceOf",
      "outputs": [
        {
          "internalType": "uint256",
          "name": "",
          "type": "uint256"
        }
      ],
      "stateMutability": "view",
      "type": "function"
    },
    {
      "inputs": [
        {
          "internalType": "address[]",
          "name": "accounts",
          "type": "address[]"
        },
        {
          "internalType": "uint256[]",
          "name": "ids",
          "type": "uint256[]"
        }
      ],
      "name": "balanceOfBatch",
      "outputs": [
        {
          "internalType": "uint256[]",
          "name": "",
          "type": "uint256[]"
        }
      ],
      "stateMutability": "view",
      "type": "function"
    },
    {
      "inputs": [
        {
          "internalType": "bytes32",
          "name": "role",
          "type": "bytes32"
        }
      ],
      "name": "getRoleAdmin",
      "outputs": [
        {
          "internalType": "bytes32",
          "name": "",
          "type": "bytes32"
        }
      ],
      "stateMutability": "view",
      "type": "function"
    },
    {
      "inputs": [
        {
          "internalType": "bytes32",
          "name": "role",
          "type": "bytes32"
        },
        {
          "internalType": "uint256",
          "name": "index",
          "type": "uint256"
        }
      ],
      "name": "getRoleMember",
      "outputs": [
        {
          "internalType": "address",
          "name": "",
          "type": "address"
        }
      ],
      "stateMutability": "view",
      "type": "function"
    },
    {
      "inputs": [
        {
          "internalType": "bytes32",
          "name": "role",
          "type": "bytes32"
        }
      ],
      "name": "getRoleMemberCount",
      "outputs": [
        {
          "internalType": "uint256",
          "name": "",
          "type": "uint256"
        }
      ],
      "stateMutability": "view",
      "type": "function"
    },
    {
      "inputs": [
        {
          "internalType": "bytes32",
          "name": "role",
          "type": "bytes32"
        },
        {
          "internalType": "address",
          "name": "account",
          "type": "address"
        }
      ],
      "name": "grantRole",
      "outputs": [],
      "stateMutability": "nonpayable",
      "type": "function"
    },
    {
      "inputs": [
        {
          "internalType": "bytes32",
          "name": "role",
          "type": "bytes32"
        },
        {
          "internalType": "address",
          "name": "account",
          "type": "address"
        }
      ],
      "name": "hasRole",
      "outputs": [
        {
          "internalType": "bool",
          "name": "",
          "type": "bool"
        }
      ],
      "stateMutability": "view",
      "type": "function"
    },
    {
      "inputs": [
        {
          "internalType": "address",
          "name": "account",
          "type": "address"
        },
        {
          "internalType": "address",
          "name": "operator",
          "type": "address"
        }
      ],
      "name": "isApprovedForAll",
      "outputs": [
        {
          "internalType": "bool",
          "name": "",
          "type": "bool"
        }
      ],
      "stateMutability": "view",
      "type": "function"
    },
    {
      "inputs": [
        {
          "internalType": "address",
          "name": "",
          "type": "address"
        },
        {
          "internalType": "address",
          "name": "",
          "type": "address"
        },
        {
          "internalType": "uint256[]",
          "name": "",
          "type": "uint256[]"
        },
        {
          "internalType": "uint256[]",
          "name": "",
          "type": "uint256[]"
        },
        {
          "internalType": "bytes",
          "name": "",
          "type": "bytes"
        }
      ],
      "name": "onERC1155BatchReceived",
      "outputs": [
        {
          "internalType": "bytes4",
          "name": "",
          "type": "bytes4"
        }
      ],
      "stateMutability": "nonpayable",
      "type": "function"
    },
    {
      "inputs": [
        {
          "internalType": "address",
          "name": "",
          "type": "address"
        },
        {
          "internalType": "address",
          "name": "",
          "type": "address"
        },
        {
          "internalType": "uint256",
          "name": "",
          "type": "uint256"
        },
        {
          "internalType": "uint256",
          "name": "",
          "type": "uint256"
        },
        {
          "internalType": "bytes",
          "name": "",
          "type": "bytes"
        }
      ],
      "name": "onERC1155Received",
      "outputs": [
        {
          "internalType": "bytes4",
          "name": "",
          "type": "bytes4"
        }
      ],
      "stateMutability": "nonpayable",
      "type": "function"
    },
    {
      "inputs": [
        {
          "internalType": "bytes32",
          "name": "role",
          "type": "bytes32"
        },
        {
          "internalType": "address",
          "name": "account",
          "type": "address"
        }
      ],
      "name": "renounceRole",
      "outputs": [],
      "stateMutability": "nonpayable",
      "type": "function"
    },
    {
      "inputs": [
        {
          "internalType": "bytes32",
          "name": "role",
          "type": "bytes32"
        },
        {
          "internalType": "address",
          "name": "account",
          "type": "address"
        }
      ],
      "name": "revokeRole",
      "outputs": [],
      "stateMutability": "nonpayable",
      "type": "function"
    },
    {
      "inputs": [
        {
          "internalType": "address",
          "name": "from",
          "type": "address"
        },
        {
          "internalType": "address",
          "name": "to",
          "type": "address"
        },
        {
          "internalType": "uint256[]",
          "name": "ids",
          "type": "uint256[]"
        },
        {
          "internalType": "uint256[]",
          "name": "amounts",
          "type": "uint256[]"
        },
        {
          "internalType": "bytes",
          "name": "data",
          "type": "bytes"
        }
      ],
      "name": "safeBatchTransferFrom",
      "outputs": [],
      "stateMutability": "nonpayable",
      "type": "function"
    },
    {
      "inputs": [
        {
          "internalType": "address",
          "name": "from",
          "type": "address"
        },
        {
          "internalType": "address",
          "name": "to",
          "type": "address"
        },
        {
          "internalType": "uint256",
          "name": "id",
          "type": "uint256"
        },
        {
          "internalType": "uint256",
          "name": "amount",
          "type": "uint256"
        },
        {
          "internalType": "bytes",
          "name": "data",
          "type": "bytes"
        }
      ],
      "name": "safeTransferFrom",
      "outputs": [],
      "stateMutability": "nonpayable",
      "type": "function"
    },
    {
      "inputs": [
        {
          "internalType": "address",
          "name": "operator",
          "type": "address"
        },
        {
          "internalType": "bool",
          "name": "approved",
          "type": "bool"
        }
      ],
      "name": "setApprovalForAll",
      "outputs": [],
      "stateMutability": "nonpayable",
      "type": "function"
    },
    {
      "inputs": [
        {
          "internalType": "uint256",
          "name": "",
          "type": "uint256"
        }
      ],
      "name": "uri",
      "outputs": [
        {
          "internalType": "string",
          "name": "",
          "type": "string"
        }
      ],
      "stateMutability": "view",
      "type": "function"
    },
    {
      "inputs": [],
      "name": "getAllTokens",
      "outputs": [
        {
          "components": [
            {
              "internalType": "string",
              "name": "uri",
              "type": "string"
            },
            {
              "internalType": "string",
              "name": "name",
              "type": "string"
            }
          ],
          "internalType": "struct TokenData[]",
          "name": "",
          "type": "tuple[]"
        }
      ],
      "stateMutability": "view",
      "type": "function"
    },
    {
      "inputs": [],
      "name": "getTokensCount",
      "outputs": [
        {
          "internalType": "uint256",
          "name": "",
          "type": "uint256"
        }
      ],
      "stateMutability": "view",
      "type": "function"
    },
    {
      "inputs": [
        {
          "internalType": "uint256",
          "name": "tokenId",
          "type": "uint256"
        }
      ],
      "name": "tokenData",
      "outputs": [
        {
          "components": [
            {
              "internalType": "string",
              "name": "uri",
              "type": "string"
            },
            {
              "internalType": "string",
              "name": "name",
              "type": "string"
            }
          ],
          "internalType": "struct TokenData",
          "name": "",
          "type": "tuple"
        }
      ],
      "stateMutability": "view",
      "type": "function"
    },
    {
      "inputs": [
        {
          "internalType": "uint256",
          "name": "tokenId",
          "type": "uint256"
        },
        {
          "internalType": "uint256",
          "name": "tokenUnitId",
          "type": "uint256"
        }
      ],
      "name": "tokenUnitData",
      "outputs": [
        {
          "components": [
            {
              "internalType": "address",
              "name": "owner",
              "type": "address"
            },
            {
              "internalType": "string",
              "name": "nfcId",
              "type": "string"
            },
            {
              "internalType": "string",
              "name": "status",
              "type": "string"
            }
          ],
          "internalType": "struct TokenUnitData",
          "name": "",
          "type": "tuple"
        }
      ],
      "stateMutability": "view",
      "type": "function"
    },
    {
      "inputs": [
        {
          "internalType": "string",
          "name": "tokenUri",
          "type": "string"
        },
        {
          "internalType": "string",
          "name": "tokenName",
          "type": "string"
        },
        {
          "internalType": "bytes",
          "name": "data",
          "type": "bytes"
        }
      ],
      "name": "mintToken",
      "outputs": [
        {
          "internalType": "uint256",
          "name": "",
          "type": "uint256"
        }
      ],
      "stateMutability": "nonpayable",
      "type": "function"
    },
    {
      "inputs": [
        {
          "internalType": "uint256",
          "name": "tokenId",
          "type": "uint256"
        },
        {
          "internalType": "string",
          "name": "nfcId",
          "type": "string"
        },
        {
          "internalType": "bytes",
          "name": "data",
          "type": "bytes"
        }
      ],
      "name": "mintTokenUnit",
      "outputs": [
        {
          "internalType": "uint256",
          "name": "",
          "type": "uint256"
        }
      ],
      "stateMutability": "nonpayable",
      "type": "function"
    },
    {
      "inputs": [
        {
          "internalType": "uint256",
          "name": "_tokenId",
          "type": "uint256"
        },
        {
          "internalType": "uint256",
          "name": "_unitId",
          "type": "uint256"
        },
        {
          "internalType": "address",
          "name": "_to",
          "type": "address"
        },
        {
          "internalType": "string",
          "name": "_pin",
          "type": "string"
        }
      ],
      "name": "requestOwnership",
      "outputs": [
        {
          "internalType": "bytes32",
          "name": "requestId",
          "type": "bytes32"
        }
      ],
      "stateMutability": "nonpayable",
      "type": "function"
    },
    {
      "inputs": [
        {
          "internalType": "uint256",
          "name": "_tokenId",
          "type": "uint256"
        },
        {
          "internalType": "uint256",
          "name": "_unitId",
          "type": "uint256"
        },
        {
          "internalType": "address",
          "name": "_to",
          "type": "address"
        },
        {
          "internalType": "bool",
          "name": "_valid",
          "type": "bool"
        }
      ],
      "name": "giveOwnership",
      "outputs": [],
      "stateMutability": "nonpayable",
      "type": "function"
    },
    {
      "inputs": [
        {
          "internalType": "address",
          "name": "_contract",
          "type": "address"
        }
      ],
      "name": "setVerificationContract",
      "outputs": [],
      "stateMutability": "nonpayable",
      "type": "function"
    },
    {
      "inputs": [
        {
          "internalType": "bytes4",
          "name": "interfaceId",
          "type": "bytes4"
        }
      ],
      "name": "supportsInterface",
      "outputs": [
        {
          "internalType": "bool",
          "name": "",
          "type": "bool"
        }
      ],
      "stateMutability": "view",
      "type": "function"
    }
  ],
  "bytecode": "0x60806040523480156200001157600080fd5b5060405162005998380380620059988339818101604052810190620000379190620004c0565b60405180602001604052806000815250806200005981620000e060201b60201c565b506200007e6000801b62000072620000fc60201b60201c565b6200010460201b60201c565b620000bf7f9f2df0fed2c77648de5860a4cc508cd0818c85b8b8a1ab4ceeef8d981c8956a6620000b3620000fc60201b60201c565b6200010460201b60201c565b508060059080519060200190620000d892919062000392565b505062000695565b8060049080519060200190620000f892919062000392565b5050565b600033905090565b6200011b82826200014c60201b62001b151760201c565b6200014781600160008581526020019081526020016000206200016260201b62001b231790919060201c565b505050565b6200015e82826200019a60201b60201c565b5050565b600062000192836000018373ffffffffffffffffffffffffffffffffffffffff1660001b6200028b60201b60201c565b905092915050565b620001ac82826200030560201b60201c565b6200028757600160008084815260200190815260200160002060000160008373ffffffffffffffffffffffffffffffffffffffff1673ffffffffffffffffffffffffffffffffffffffff16815260200190815260200160002060006101000a81548160ff0219169083151502179055506200022c620000fc60201b60201c565b73ffffffffffffffffffffffffffffffffffffffff168173ffffffffffffffffffffffffffffffffffffffff16837f2f8788117e7eff1d82e926ec794901d17c78024a50270940304540a733656f0d60405160405180910390a45b5050565b60006200029f83836200036f60201b60201c565b620002fa578260000182908060018154018082558091505060019003906000526020600020016000909190919091505582600001805490508360010160008481526020019081526020016000208190555060019050620002ff565b600090505b92915050565b600080600084815260200190815260200160002060000160008373ffffffffffffffffffffffffffffffffffffffff1673ffffffffffffffffffffffffffffffffffffffff16815260200190815260200160002060009054906101000a900460ff16905092915050565b600080836001016000848152602001908152602001600020541415905092915050565b828054620003a090620005a6565b90600052602060002090601f016020900481019282620003c4576000855562000410565b82601f10620003df57805160ff191683800117855562000410565b8280016001018555821562000410579182015b828111156200040f578251825591602001919060010190620003f2565b5b5090506200041f919062000423565b5090565b5b808211156200043e57600081600090555060010162000424565b5090565b60006200045962000453846200053a565b62000511565b90508281526020810184848401111562000478576200047762000675565b5b6200048584828562000570565b509392505050565b600082601f830112620004a557620004a462000670565b5b8151620004b784826020860162000442565b91505092915050565b600060208284031215620004d957620004d86200067f565b5b600082015167ffffffffffffffff811115620004fa57620004f96200067a565b5b62000508848285016200048d565b91505092915050565b60006200051d62000530565b90506200052b8282620005dc565b919050565b6000604051905090565b600067ffffffffffffffff82111562000558576200055762000641565b5b620005638262000684565b9050602081019050919050565b60005b838110156200059057808201518184015260208101905062000573565b83811115620005a0576000848401525b50505050565b60006002820490506001821680620005bf57607f821691505b60208210811415620005d657620005d562000612565b5b50919050565b620005e78262000684565b810181811067ffffffffffffffff8211171562000609576200060862000641565b5b80604052505050565b7f4e487b7100000000000000000000000000000000000000000000000000000000600052602260045260246000fd5b7f4e487b7100000000000000000000000000000000000000000000000000000000600052604160045260246000fd5b600080fd5b600080fd5b600080fd5b600080fd5b6000601f19601f8301169050919050565b6152f380620006a56000396000f3fe608060405234801561001057600080fd5b50600436106101c35760003560e01c80639fe8660f116100f9578063ca15c87311610097578063e985e9c511610071578063e985e9c514610588578063f23a6e61146105b8578063f242432a146105e8578063fb48d6be14610604576101c3565b8063ca15c8731461051e578063d53913931461054e578063d547741f1461056c576101c3565b8063a8790d1f116100d3578063a8790d1f14610472578063b4b5b48f1461048e578063bc197c81146104be578063c3d04279146104ee576101c3565b80639fe8660f14610408578063a217fddf14610438578063a22cb46514610456576101c3565b806336568abe116101665780634e1273f4116101405780634e1273f4146103485780636648b1cb146103785780639010d07c146103a857806391d14854146103d8576101c3565b806336568abe146102de5780633962f82d146102fa5780633e80bb7414610318576101c3565b8063248a9ca3116101a2578063248a9ca3146102585780632a5c792a146102885780632eb2c2d6146102a65780632f2ff15d146102c2576101c3565b8062fdd58e146101c857806301ffc9a7146101f85780630e89341c14610228575b600080fd5b6101e260048036038101906101dd9190613728565b610620565b6040516101ef9190614646565b60405180910390f35b610212600480360381019061020d91906138ba565b6106ea565b60405161021f919061434f565b60405180910390f35b610242600480360381019061023d91906139c5565b6106fc565b60405161024f91906143a0565b60405180910390f35b610272600480360381019061026d91906137e0565b610790565b60405161027f919061436a565b60405180910390f35b6102906107af565b60405161029d91906142d4565b60405180910390f35b6102c060048036038101906102bb9190613582565b6109b3565b005b6102dc60048036038101906102d7919061383a565b610a54565b005b6102f860048036038101906102f3919061383a565b610a88565b005b610302610abc565b60405161030f9190614646565b60405180910390f35b610332600480360381019061032d9190613a82565b610ad6565b60405161033f9190614624565b60405180910390f35b610362600480360381019061035d9190613768565b610c8f565b60405161036f91906142f6565b60405180910390f35b610392600480360381019061038d9190613914565b610da8565b60405161039f9190614646565b60405180910390f35b6103c260048036038101906103bd919061387a565b610f8e565b6040516103cf91906141f7565b60405180910390f35b6103f260048036038101906103ed919061383a565b610fbd565b6040516103ff919061434f565b60405180910390f35b610422600480360381019061041d9190613b29565b611027565b60405161042f919061436a565b60405180910390f35b61044061117a565b60405161044d919061436a565b60405180910390f35b610470600480360381019061046b91906136e8565b611181565b005b61048c60048036038101906104879190613ac2565b611302565b005b6104a860048036038101906104a391906139c5565b6114cc565b6040516104b59190614602565b60405180910390f35b6104d860048036038101906104d39190613582565b61161d565b6040516104e59190614385565b60405180910390f35b610508600480360381019061050391906139f2565b611632565b6040516105159190614646565b60405180910390f35b610538600480360381019061053391906137e0565b6118b8565b6040516105459190614646565b60405180910390f35b6105566118dc565b604051610563919061436a565b60405180910390f35b6105866004803603810190610581919061383a565b611900565b005b6105a2600480360381019061059d9190613542565b611934565b6040516105af919061434f565b60405180910390f35b6105d260048036038101906105cd9190613651565b6119c8565b6040516105df9190614385565b60405180910390f35b61060260048036038101906105fd9190613651565b6119dd565b005b61061e60048036038101906106199190613515565b611a7e565b005b60008073ffffffffffffffffffffffffffffffffffffffff168373ffffffffffffffffffffffffffffffffffffffff161415610691576040517f08c379a000000000000000000000000000000000000000000000000000000000815260040161068890614422565b60405180910390fd5b6002600083815260200190815260200160002060008473ffffffffffffffffffffffffffffffffffffffff1673ffffffffffffffffffffffffffffffffffffffff16815260200190815260200160002054905092915050565b60006106f582611b53565b9050919050565b60606004805461070b90614a27565b80601f016020809104026020016040519081016040528092919081815260200182805461073790614a27565b80156107845780601f1061075957610100808354040283529160200191610784565b820191906000526020600020905b81548152906001019060200180831161076757829003601f168201915b50505050509050919050565b6000806000838152602001908152602001600020600101549050919050565b60606000600660009054906101000a900460ff1660ff1667ffffffffffffffff8111156107df576107de614bb9565b5b60405190808252806020026020018201604052801561081857816020015b61080561318c565b8152602001906001900390816107fd5790505b50905060005b600660009054906101000a900460ff1660ff168110156109ab576008600082815260200190815260200160002060405180604001604052908160008201805461086690614a27565b80601f016020809104026020016040519081016040528092919081815260200182805461089290614a27565b80156108df5780601f106108b4576101008083540402835291602001916108df565b820191906000526020600020905b8154815290600101906020018083116108c257829003601f168201915b505050505081526020016001820180546108f890614a27565b80601f016020809104026020016040519081016040528092919081815260200182805461092490614a27565b80156109715780601f1061094657610100808354040283529160200191610971565b820191906000526020600020905b81548152906001019060200180831161095457829003601f168201915b50505050508152505082828151811061098d5761098c614b8a565b5b602002602001018190525080806109a390614a8a565b91505061081e565b508091505090565b6109bb611bcd565b73ffffffffffffffffffffffffffffffffffffffff168573ffffffffffffffffffffffffffffffffffffffff161480610a015750610a00856109fb611bcd565b611934565b5b610a40576040517f08c379a0000000000000000000000000000000000000000000000000000000008152600401610a37906144e2565b60405180910390fd5b610a4d8585858585611bd5565b5050505050565b610a5e8282611eec565b610a838160016000858152602001908152602001600020611b2390919063ffffffff16565b505050565b610a928282611f15565b610ab78160016000858152602001908152602001600020611f9890919063ffffffff16565b505050565b6000600660009054906101000a900460ff1660ff16905090565b610ade6131a6565b6009600084815260200190815260200160002060008381526020019081526020016000206040518060600160405290816000820160009054906101000a900473ffffffffffffffffffffffffffffffffffffffff1673ffffffffffffffffffffffffffffffffffffffff1673ffffffffffffffffffffffffffffffffffffffff168152602001600182018054610b7390614a27565b80601f0160208091040260200160405190810160405280929190818152602001828054610b9f90614a27565b8015610bec5780601f10610bc157610100808354040283529160200191610bec565b820191906000526020600020905b815481529060010190602001808311610bcf57829003601f168201915b50505050508152602001600282018054610c0590614a27565b80601f0160208091040260200160405190810160405280929190818152602001828054610c3190614a27565b8015610c7e5780601f10610c5357610100808354040283529160200191610c7e565b820191906000526020600020905b815481529060010190602001808311610c6157829003601f168201915b505050505081525050905092915050565b60608151835114610cd5576040517f08c379a0000000000000000000000000000000000000000000000000000000008152600401610ccc90614582565b60405180910390fd5b6000835167ffffffffffffffff811115610cf257610cf1614bb9565b5b604051908082528060200260200182016040528015610d205781602001602082028036833780820191505090505b50905060005b8451811015610d9d57610d6d858281518110610d4557610d44614b8a565b5b6020026020010151858381518110610d6057610d5f614b8a565b5b6020026020010151610620565b828281518110610d8057610d7f614b8a565b5b60200260200101818152505080610d9690614a8a565b9050610d26565b508091505092915050565b6000610ddb7f9f2df0fed2c77648de5860a4cc508cd0818c85b8b8a1ab4ceeef8d981c8956a6610dd6611bcd565b610fbd565b610e1a576040517f08c379a0000000000000000000000000000000000000000000000000000000008152600401610e1190614502565b60405180910390fd5b610e3930600660009054906101000a900460ff1660ff16600085611fc8565b604051806040016040528087878080601f016020809104026020016040519081016040528093929190818152602001838380828437600081840152601f19601f82011690508083019250505050505050815260200185858080601f016020809104026020016040519081016040528093929190818152602001838380828437600081840152601f19601f8201169050808301925050505050505081525060086000600660009054906101000a900460ff1660ff1681526020019081526020016000206000820151816000019080519060200190610f179291906131dd565b506020820151816001019080519060200190610f349291906131dd565b509050506006600081819054906101000a900460ff1680929190610f5790614ad3565b91906101000a81548160ff021916908360ff16021790555050600660009054906101000a900460ff1660ff16905095945050505050565b6000610fb5826001600086815260200190815260200160002061215f90919063ffffffff16565b905092915050565b600080600084815260200190815260200160002060000160008373ffffffffffffffffffffffffffffffffffffffff1673ffffffffffffffffffffffffffffffffffffffff16815260200190815260200160002060009054906101000a900460ff16905092915050565b60008073ffffffffffffffffffffffffffffffffffffffff16600660019054906101000a900473ffffffffffffffffffffffffffffffffffffffff1673ffffffffffffffffffffffffffffffffffffffff1614156110ba576040517f08c379a00000000000000000000000000000000000000000000000000000000081526004016110b190614542565b60405180910390fd5b600660019054906101000a900473ffffffffffffffffffffffffffffffffffffffff1673ffffffffffffffffffffffffffffffffffffffff16639fe8660f87878787876040518663ffffffff1660e01b815260040161111d95949392919061468a565b602060405180830381600087803b15801561113757600080fd5b505af115801561114b573d6000803e3d6000fd5b505050506040513d601f19601f8201168201806040525081019061116f919061380d565b905095945050505050565b6000801b81565b8173ffffffffffffffffffffffffffffffffffffffff166111a0611bcd565b73ffffffffffffffffffffffffffffffffffffffff1614156111f7576040517f08c379a00000000000000000000000000000000000000000000000000000000081526004016111ee90614562565b60405180910390fd5b8060036000611204611bcd565b73ffffffffffffffffffffffffffffffffffffffff1673ffffffffffffffffffffffffffffffffffffffff16815260200190815260200160002060008473ffffffffffffffffffffffffffffffffffffffff1673ffffffffffffffffffffffffffffffffffffffff16815260200190815260200160002060006101000a81548160ff0219169083151502179055508173ffffffffffffffffffffffffffffffffffffffff166112b1611bcd565b73ffffffffffffffffffffffffffffffffffffffff167f17307eab39ab6107e8899845ad3d59bd9653f200f220920489ca2b5937696c31836040516112f6919061434f565b60405180910390a35050565b600660019054906101000a900473ffffffffffffffffffffffffffffffffffffffff1673ffffffffffffffffffffffffffffffffffffffff163373ffffffffffffffffffffffffffffffffffffffff1614611392576040517f08c379a0000000000000000000000000000000000000000000000000000000008152600401611389906144a2565b60405180910390fd5b806113d2576040517f08c379a00000000000000000000000000000000000000000000000000000000081526004016113c990614482565b60405180910390fd5b8160096000868152602001908152602001600020600085815260200190815260200160002060000160006101000a81548173ffffffffffffffffffffffffffffffffffffffff021916908373ffffffffffffffffffffffffffffffffffffffff1602179055506040518060400160405280600581526020017f6f776e656400000000000000000000000000000000000000000000000000000081525060096000868152602001908152602001600020600085815260200190815260200160002060020190805190602001906114a89291906131dd565b506114c6308386600160405180602001604052806000815250612179565b50505050565b6114d461318c565b6008600083815260200190815260200160002060405180604001604052908160008201805461150290614a27565b80601f016020809104026020016040519081016040528092919081815260200182805461152e90614a27565b801561157b5780601f106115505761010080835404028352916020019161157b565b820191906000526020600020905b81548152906001019060200180831161155e57829003601f168201915b5050505050815260200160018201805461159490614a27565b80601f01602080910402602001604051908101604052809291908181526020018280546115c090614a27565b801561160d5780601f106115e25761010080835404028352916020019161160d565b820191906000526020600020905b8154815290600101906020018083116115f057829003601f168201915b5050505050815250509050919050565b600063bc197c8160e01b905095945050505050565b60006116657f9f2df0fed2c77648de5860a4cc508cd0818c85b8b8a1ab4ceeef8d981c8956a6611660611bcd565b610fbd565b6116a4576040517f08c379a000000000000000000000000000000000000000000000000000000000815260040161169b90614502565b60405180910390fd5b6116ad856123fe565b6116ec576040517f08c379a00000000000000000000000000000000000000000000000000000000081526004016116e390614462565b60405180910390fd5b61170c306007600088815260200190815260200160002054600185611fc8565b60405180606001604052803073ffffffffffffffffffffffffffffffffffffffff16815260200185858080601f016020809104026020016040519081016040528093929190818152602001838380828437600081840152601f19601f8201169050808301925050505050505081526020016040518060400160405280600681526020017f6d696e74656400000000000000000000000000000000000000000000000000008152508152506009600087815260200190815260200160002060006007600089815260200190815260200160002054815260200190815260200160002060008201518160000160006101000a81548173ffffffffffffffffffffffffffffffffffffffff021916908373ffffffffffffffffffffffffffffffffffffffff16021790555060208201518160010190805190602001906118509291906131dd565b50604082015181600201908051906020019061186d9291906131dd565b5090505060076000868152602001908152602001600020600081548092919061189590614a8a565b919050555060076000868152602001908152602001600020549050949350505050565b60006118d56001600084815260200190815260200160002061241c565b9050919050565b7f9f2df0fed2c77648de5860a4cc508cd0818c85b8b8a1ab4ceeef8d981c8956a681565b61190a8282612431565b61192f8160016000858152602001908152602001600020611f9890919063ffffffff16565b505050565b6000600360008473ffffffffffffffffffffffffffffffffffffffff1673ffffffffffffffffffffffffffffffffffffffff16815260200190815260200160002060008373ffffffffffffffffffffffffffffffffffffffff1673ffffffffffffffffffffffffffffffffffffffff16815260200190815260200160002060009054906101000a900460ff16905092915050565b600063f23a6e6160e01b905095945050505050565b6119e5611bcd565b73ffffffffffffffffffffffffffffffffffffffff168573ffffffffffffffffffffffffffffffffffffffff161480611a2b5750611a2a85611a25611bcd565b611934565b5b611a6a576040517f08c379a0000000000000000000000000000000000000000000000000000000008152600401611a6190614442565b60405180910390fd5b611a778585858585612179565b5050505050565b611a926000801b611a8d611bcd565b610fbd565b611ad1576040517f08c379a0000000000000000000000000000000000000000000000000000000008152600401611ac890614502565b60405180910390fd5b80600660016101000a81548173ffffffffffffffffffffffffffffffffffffffff021916908373ffffffffffffffffffffffffffffffffffffffff16021790555050565b611b1f828261245a565b5050565b6000611b4b836000018373ffffffffffffffffffffffffffffffffffffffff1660001b61253a565b905092915050565b60007f4e2312e0000000000000000000000000000000000000000000000000000000007bffffffffffffffffffffffffffffffffffffffffffffffffffffffff1916827bffffffffffffffffffffffffffffffffffffffffffffffffffffffff19161480611bc65750611bc5826125aa565b5b9050919050565b600033905090565b8151835114611c19576040517f08c379a0000000000000000000000000000000000000000000000000000000008152600401611c10906145a2565b60405180910390fd5b600073ffffffffffffffffffffffffffffffffffffffff168473ffffffffffffffffffffffffffffffffffffffff161415611c89576040517f08c379a0000000000000000000000000000000000000000000000000000000008152600401611c80906144c2565b60405180910390fd5b6000611c93611bcd565b9050611ca38187878787876125bc565b60005b8451811015611e57576000858281518110611cc457611cc3614b8a565b5b602002602001015190506000858381518110611ce357611ce2614b8a565b5b6020026020010151905060006002600084815260200190815260200160002060008b73ffffffffffffffffffffffffffffffffffffffff1673ffffffffffffffffffffffffffffffffffffffff16815260200190815260200160002054905081811015611d85576040517f08c379a0000000000000000000000000000000000000000000000000000000008152600401611d7c90614522565b60405180910390fd5b8181036002600085815260200190815260200160002060008c73ffffffffffffffffffffffffffffffffffffffff1673ffffffffffffffffffffffffffffffffffffffff16815260200190815260200160002081905550816002600085815260200190815260200160002060008b73ffffffffffffffffffffffffffffffffffffffff1673ffffffffffffffffffffffffffffffffffffffff1681526020019081526020016000206000828254611e3c919061484c565b9250508190555050505080611e5090614a8a565b9050611ca6565b508473ffffffffffffffffffffffffffffffffffffffff168673ffffffffffffffffffffffffffffffffffffffff168273ffffffffffffffffffffffffffffffffffffffff167f4a39dc06d4c0dbc64b70af90fd698a233a518aa5d07e595d983b8c0526c8f7fb8787604051611ece929190614318565b60405180910390a4611ee48187878787876125c4565b505050505050565b611ef582610790565b611f0681611f01611bcd565b6127ab565b611f10838361245a565b505050565b611f1d611bcd565b73ffffffffffffffffffffffffffffffffffffffff168173ffffffffffffffffffffffffffffffffffffffff1614611f8a576040517f08c379a0000000000000000000000000000000000000000000000000000000008152600401611f81906145e2565b60405180910390fd5b611f948282612848565b5050565b6000611fc0836000018373ffffffffffffffffffffffffffffffffffffffff1660001b612929565b905092915050565b600073ffffffffffffffffffffffffffffffffffffffff168473ffffffffffffffffffffffffffffffffffffffff161415612038576040517f08c379a000000000000000000000000000000000000000000000000000000000815260040161202f906145c2565b60405180910390fd5b6000612042611bcd565b90506120638160008761205488612a3d565b61205d88612a3d565b876125bc565b826002600086815260200190815260200160002060008773ffffffffffffffffffffffffffffffffffffffff1673ffffffffffffffffffffffffffffffffffffffff16815260200190815260200160002060008282546120c3919061484c565b925050819055508473ffffffffffffffffffffffffffffffffffffffff16600073ffffffffffffffffffffffffffffffffffffffff168273ffffffffffffffffffffffffffffffffffffffff167fc3d58168c5ae7397731d063d5bbf3d657854427343f4c083240f7aacaa2d0f628787604051612141929190614661565b60405180910390a461215881600087878787612ab7565b5050505050565b600061216e8360000183612c9e565b60001c905092915050565b600073ffffffffffffffffffffffffffffffffffffffff168473ffffffffffffffffffffffffffffffffffffffff1614156121e9576040517f08c379a00000000000000000000000000000000000000000000000000000000081526004016121e0906144c2565b60405180910390fd5b60006121f3611bcd565b905061221381878761220488612a3d565b61220d88612a3d565b876125bc565b60006002600086815260200190815260200160002060008873ffffffffffffffffffffffffffffffffffffffff1673ffffffffffffffffffffffffffffffffffffffff168152602001908152602001600020549050838110156122ab576040517f08c379a00000000000000000000000000000000000000000000000000000000081526004016122a290614522565b60405180910390fd5b8381036002600087815260200190815260200160002060008973ffffffffffffffffffffffffffffffffffffffff1673ffffffffffffffffffffffffffffffffffffffff16815260200190815260200160002081905550836002600087815260200190815260200160002060008873ffffffffffffffffffffffffffffffffffffffff1673ffffffffffffffffffffffffffffffffffffffff1681526020019081526020016000206000828254612362919061484c565b925050819055508573ffffffffffffffffffffffffffffffffffffffff168773ffffffffffffffffffffffffffffffffffffffff168373ffffffffffffffffffffffffffffffffffffffff167fc3d58168c5ae7397731d063d5bbf3d657854427343f4c083240f7aacaa2d0f6288886040516123df929190614661565b60405180910390a46123f5828888888888612ab7565b50505050505050565b6000600660009054906101000a900460ff1660ff1682109050919050565b600061242a82600001612cc9565b9050919050565b61243a82610790565b61244b81612446611bcd565b6127ab565b6124558383612848565b505050565b6124648282610fbd565b61253657600160008084815260200190815260200160002060000160008373ffffffffffffffffffffffffffffffffffffffff1673ffffffffffffffffffffffffffffffffffffffff16815260200190815260200160002060006101000a81548160ff0219169083151502179055506124db611bcd565b73ffffffffffffffffffffffffffffffffffffffff168173ffffffffffffffffffffffffffffffffffffffff16837f2f8788117e7eff1d82e926ec794901d17c78024a50270940304540a733656f0d60405160405180910390a45b5050565b60006125468383612cda565b61259f5782600001829080600181540180825580915050600190039060005260206000200160009091909190915055826000018054905083600101600084815260200190815260200160002081905550600190506125a4565b600090505b92915050565b60006125b582612cfd565b9050919050565b505050505050565b6125e38473ffffffffffffffffffffffffffffffffffffffff16612ddf565b156127a3578373ffffffffffffffffffffffffffffffffffffffff1663bc197c8187878686866040518663ffffffff1660e01b8152600401612629959493929190614212565b602060405180830381600087803b15801561264357600080fd5b505af192505050801561267457506040513d601f19601f8201168201806040525081019061267191906138e7565b60015b61271a57612680614be8565b806308c379a014156126dd57506126956151b4565b806126a057506126df565b806040517f08c379a00000000000000000000000000000000000000000000000000000000081526004016126d491906143a0565b60405180910390fd5b505b6040517f08c379a0000000000000000000000000000000000000000000000000000000008152600401612711906143c2565b60405180910390fd5b63bc197c8160e01b7bffffffffffffffffffffffffffffffffffffffffffffffffffffffff1916817bffffffffffffffffffffffffffffffffffffffffffffffffffffffff1916146127a1576040517f08c379a000000000000000000000000000000000000000000000000000000000815260040161279890614402565b60405180910390fd5b505b505050505050565b6127b58282610fbd565b612844576127da8173ffffffffffffffffffffffffffffffffffffffff166014612df2565b6127e88360001c6020612df2565b6040516020016127f99291906141bd565b6040516020818303038152906040526040517f08c379a000000000000000000000000000000000000000000000000000000000815260040161283b91906143a0565b60405180910390fd5b5050565b6128528282610fbd565b1561292557600080600084815260200190815260200160002060000160008373ffffffffffffffffffffffffffffffffffffffff1673ffffffffffffffffffffffffffffffffffffffff16815260200190815260200160002060006101000a81548160ff0219169083151502179055506128ca611bcd565b73ffffffffffffffffffffffffffffffffffffffff168173ffffffffffffffffffffffffffffffffffffffff16837ff6391f5c32d9c69d2a47ea670b442974b53935d1edc7fd64eb21e047a839171b60405160405180910390a45b5050565b60008083600101600084815260200190815260200160002054905060008114612a3157600060018261295b91906148fc565b905060006001866000018054905061297391906148fc565b90508181146129e257600086600001828154811061299457612993614b8a565b5b90600052602060002001549050808760000184815481106129b8576129b7614b8a565b5b90600052602060002001819055508387600101600083815260200190815260200160002081905550505b856000018054806129f6576129f5614b5b565b5b600190038181906000526020600020016000905590558560010160008681526020019081526020016000206000905560019350505050612a37565b60009150505b92915050565b60606000600167ffffffffffffffff811115612a5c57612a5b614bb9565b5b604051908082528060200260200182016040528015612a8a5781602001602082028036833780820191505090505b5090508281600081518110612aa257612aa1614b8a565b5b60200260200101818152505080915050919050565b612ad68473ffffffffffffffffffffffffffffffffffffffff16612ddf565b15612c96578373ffffffffffffffffffffffffffffffffffffffff1663f23a6e6187878686866040518663ffffffff1660e01b8152600401612b1c95949392919061427a565b602060405180830381600087803b158015612b3657600080fd5b505af1925050508015612b6757506040513d601f19601f82011682018060405250810190612b6491906138e7565b60015b612c0d57612b73614be8565b806308c379a01415612bd05750612b886151b4565b80612b935750612bd2565b806040517f08c379a0000000000000000000000000000000000000000000000000000000008152600401612bc791906143a0565b60405180910390fd5b505b6040517f08c379a0000000000000000000000000000000000000000000000000000000008152600401612c04906143c2565b60405180910390fd5b63f23a6e6160e01b7bffffffffffffffffffffffffffffffffffffffffffffffffffffffff1916817bffffffffffffffffffffffffffffffffffffffffffffffffffffffff191614612c94576040517f08c379a0000000000000000000000000000000000000000000000000000000008152600401612c8b90614402565b60405180910390fd5b505b505050505050565b6000826000018281548110612cb657612cb5614b8a565b5b9060005260206000200154905092915050565b600081600001805490509050919050565b600080836001016000848152602001908152602001600020541415905092915050565b60007fd9b67a26000000000000000000000000000000000000000000000000000000007bffffffffffffffffffffffffffffffffffffffffffffffffffffffff1916827bffffffffffffffffffffffffffffffffffffffffffffffffffffffff19161480612dc857507f0e89341c000000000000000000000000000000000000000000000000000000007bffffffffffffffffffffffffffffffffffffffffffffffffffffffff1916827bffffffffffffffffffffffffffffffffffffffffffffffffffffffff1916145b80612dd85750612dd78261302e565b5b9050919050565b600080823b905060008111915050919050565b606060006002836002612e0591906148a2565b612e0f919061484c565b67ffffffffffffffff811115612e2857612e27614bb9565b5b6040519080825280601f01601f191660200182016040528015612e5a5781602001600182028036833780820191505090505b5090507f300000000000000000000000000000000000000000000000000000000000000081600081518110612e9257612e91614b8a565b5b60200101907effffffffffffffffffffffffffffffffffffffffffffffffffffffffffffff1916908160001a9053507f780000000000000000000000000000000000000000000000000000000000000081600181518110612ef657612ef5614b8a565b5b60200101907effffffffffffffffffffffffffffffffffffffffffffffffffffffffffffff1916908160001a90535060006001846002612f3691906148a2565b612f40919061484c565b90505b6001811115612fe0577f3031323334353637383961626364656600000000000000000000000000000000600f861660108110612f8257612f81614b8a565b5b1a60f81b828281518110612f9957612f98614b8a565b5b60200101907effffffffffffffffffffffffffffffffffffffffffffffffffffffffffffff1916908160001a905350600485901c945080612fd9906149fd565b9050612f43565b5060008414613024576040517f08c379a000000000000000000000000000000000000000000000000000000000815260040161301b906143e2565b60405180910390fd5b8091505092915050565b60007f5a05180f000000000000000000000000000000000000000000000000000000007bffffffffffffffffffffffffffffffffffffffffffffffffffffffff1916827bffffffffffffffffffffffffffffffffffffffffffffffffffffffff191614806130a157506130a0826130a8565b5b9050919050565b60007f7965db0b000000000000000000000000000000000000000000000000000000007bffffffffffffffffffffffffffffffffffffffffffffffffffffffff1916827bffffffffffffffffffffffffffffffffffffffffffffffffffffffff1916148061311b575061311a82613122565b5b9050919050565b60007f01ffc9a7000000000000000000000000000000000000000000000000000000007bffffffffffffffffffffffffffffffffffffffffffffffffffffffff1916827bffffffffffffffffffffffffffffffffffffffffffffffffffffffff1916149050919050565b604051806040016040528060608152602001606081525090565b6040518060600160405280600073ffffffffffffffffffffffffffffffffffffffff16815260200160608152602001606081525090565b8280546131e990614a27565b90600052602060002090601f01602090048101928261320b5760008555613252565b82601f1061322457805160ff1916838001178555613252565b82800160010185558215613252579182015b82811115613251578251825591602001919060010190613236565b5b50905061325f9190613263565b5090565b5b8082111561327c576000816000905550600101613264565b5090565b600061329361328e846146fd565b6146d8565b905080838252602082019050828560208602820111156132b6576132b5614c14565b5b60005b858110156132e657816132cc88826133a2565b8452602084019350602083019250506001810190506132b9565b5050509392505050565b60006133036132fe84614729565b6146d8565b9050808382526020820190508285602086028201111561332657613325614c14565b5b60005b85811015613356578161333c8882613500565b845260208401935060208301925050600181019050613329565b5050509392505050565b600061337361336e84614755565b6146d8565b90508281526020810184848401111561338f5761338e614c19565b5b61339a8482856149bb565b509392505050565b6000813590506133b18161524a565b92915050565b600082601f8301126133cc576133cb614c0f565b5b81356133dc848260208601613280565b91505092915050565b600082601f8301126133fa576133f9614c0f565b5b813561340a8482602086016132f0565b91505092915050565b60008135905061342281615261565b92915050565b60008135905061343781615278565b92915050565b60008151905061344c81615278565b92915050565b6000813590506134618161528f565b92915050565b6000815190506134768161528f565b92915050565b600082601f83011261349157613490614c0f565b5b81356134a1848260208601613360565b91505092915050565b60008083601f8401126134c0576134bf614c0f565b5b8235905067ffffffffffffffff8111156134dd576134dc614c0a565b5b6020830191508360018202830111156134f9576134f8614c14565b5b9250929050565b60008135905061350f816152a6565b92915050565b60006020828403121561352b5761352a614c23565b5b6000613539848285016133a2565b91505092915050565b6000806040838503121561355957613558614c23565b5b6000613567858286016133a2565b9250506020613578858286016133a2565b9150509250929050565b600080600080600060a0868803121561359e5761359d614c23565b5b60006135ac888289016133a2565b95505060206135bd888289016133a2565b945050604086013567ffffffffffffffff8111156135de576135dd614c1e565b5b6135ea888289016133e5565b935050606086013567ffffffffffffffff81111561360b5761360a614c1e565b5b613617888289016133e5565b925050608086013567ffffffffffffffff81111561363857613637614c1e565b5b6136448882890161347c565b9150509295509295909350565b600080600080600060a0868803121561366d5761366c614c23565b5b600061367b888289016133a2565b955050602061368c888289016133a2565b945050604061369d88828901613500565b93505060606136ae88828901613500565b925050608086013567ffffffffffffffff8111156136cf576136ce614c1e565b5b6136db8882890161347c565b9150509295509295909350565b600080604083850312156136ff576136fe614c23565b5b600061370d858286016133a2565b925050602061371e85828601613413565b9150509250929050565b6000806040838503121561373f5761373e614c23565b5b600061374d858286016133a2565b925050602061375e85828601613500565b9150509250929050565b6000806040838503121561377f5761377e614c23565b5b600083013567ffffffffffffffff81111561379d5761379c614c1e565b5b6137a9858286016133b7565b925050602083013567ffffffffffffffff8111156137ca576137c9614c1e565b5b6137d6858286016133e5565b9150509250929050565b6000602082840312156137f6576137f5614c23565b5b600061380484828501613428565b91505092915050565b60006020828403121561382357613822614c23565b5b60006138318482850161343d565b91505092915050565b6000806040838503121561385157613850614c23565b5b600061385f85828601613428565b9250506020613870858286016133a2565b9150509250929050565b6000806040838503121561389157613890614c23565b5b600061389f85828601613428565b92505060206138b085828601613500565b9150509250929050565b6000602082840312156138d0576138cf614c23565b5b60006138de84828501613452565b91505092915050565b6000602082840312156138fd576138fc614c23565b5b600061390b84828501613467565b91505092915050565b6000806000806000606086880312156139305761392f614c23565b5b600086013567ffffffffffffffff81111561394e5761394d614c1e565b5b61395a888289016134aa565b9550955050602086013567ffffffffffffffff81111561397d5761397c614c1e565b5b613989888289016134aa565b9350935050604086013567ffffffffffffffff8111156139ac576139ab614c1e565b5b6139b88882890161347c565b9150509295509295909350565b6000602082840312156139db576139da614c23565b5b60006139e984828501613500565b91505092915050565b60008060008060608587031215613a0c57613a0b614c23565b5b6000613a1a87828801613500565b945050602085013567ffffffffffffffff811115613a3b57613a3a614c1e565b5b613a47878288016134aa565b9350935050604085013567ffffffffffffffff811115613a6a57613a69614c1e565b5b613a768782880161347c565b91505092959194509250565b60008060408385031215613a9957613a98614c23565b5b6000613aa785828601613500565b9250506020613ab885828601613500565b9150509250929050565b60008060008060808587031215613adc57613adb614c23565b5b6000613aea87828801613500565b9450506020613afb87828801613500565b9350506040613b0c878288016133a2565b9250506060613b1d87828801613413565b91505092959194509250565b600080600080600060808688031215613b4557613b44614c23565b5b6000613b5388828901613500565b9550506020613b6488828901613500565b9450506040613b75888289016133a2565b935050606086013567ffffffffffffffff811115613b9657613b95614c1e565b5b613ba2888289016134aa565b92509250509295509295909350565b6000613bbd83836140c0565b905092915050565b6000613bd1838361419f565b60208301905092915050565b613be681614930565b82525050565b613bf581614930565b82525050565b6000613c06826147a6565b613c1081856147ec565b935083602082028501613c2285614786565b8060005b85811015613c5e5784840389528151613c3f8582613bb1565b9450613c4a836147d2565b925060208a01995050600181019050613c26565b50829750879550505050505092915050565b6000613c7b826147b1565b613c8581856147fd565b9350613c9083614796565b8060005b83811015613cc1578151613ca88882613bc5565b9750613cb3836147df565b925050600181019050613c94565b5085935050505092915050565b613cd781614942565b82525050565b613ce68161494e565b82525050565b613cf581614958565b82525050565b6000613d06826147bc565b613d10818561480e565b9350613d208185602086016149ca565b613d2981614c28565b840191505092915050565b6000613d408385614830565b9350613d4d8385846149bb565b613d5683614c28565b840190509392505050565b6000613d6c826147c7565b613d76818561481f565b9350613d868185602086016149ca565b613d8f81614c28565b840191505092915050565b6000613da5826147c7565b613daf8185614830565b9350613dbf8185602086016149ca565b613dc881614c28565b840191505092915050565b6000613dde826147c7565b613de88185614841565b9350613df88185602086016149ca565b80840191505092915050565b6000613e11603483614830565b9150613e1c82614c46565b604082019050919050565b6000613e34602083614830565b9150613e3f82614c95565b602082019050919050565b6000613e57602883614830565b9150613e6282614cbe565b604082019050919050565b6000613e7a602b83614830565b9150613e8582614d0d565b604082019050919050565b6000613e9d602983614830565b9150613ea882614d5c565b604082019050919050565b6000613ec0601783614830565b9150613ecb82614dab565b602082019050919050565b6000613ee3601383614830565b9150613eee82614dd4565b602082019050919050565b6000613f06602f83614830565b9150613f1182614dfd565b604082019050919050565b6000613f29602583614830565b9150613f3482614e4c565b604082019050919050565b6000613f4c603283614830565b9150613f5782614e9b565b604082019050919050565b6000613f6f603883614830565b9150613f7a82614eea565b604082019050919050565b6000613f92602a83614830565b9150613f9d82614f39565b604082019050919050565b6000613fb5603983614830565b9150613fc082614f88565b604082019050919050565b6000613fd8601783614841565b9150613fe382614fd7565b601782019050919050565b6000613ffb602983614830565b915061400682615000565b604082019050919050565b600061401e602983614830565b91506140298261504f565b604082019050919050565b6000614041602883614830565b915061404c8261509e565b604082019050919050565b6000614064602183614830565b915061406f826150ed565b604082019050919050565b6000614087601183614841565b91506140928261513c565b601182019050919050565b60006140aa602f83614830565b91506140b582615165565b604082019050919050565b600060408301600083015184820360008601526140dd8282613d61565b915050602083015184820360208601526140f78282613d61565b9150508091505092915050565b600060408301600083015184820360008601526141218282613d61565b9150506020830151848203602086015261413b8282613d61565b9150508091505092915050565b60006060830160008301516141606000860182613bdd565b50602083015184820360208601526141788282613d61565b915050604083015184820360408601526141928282613d61565b9150508091505092915050565b6141a8816149a4565b82525050565b6141b7816149a4565b82525050565b60006141c882613fcb565b91506141d48285613dd3565b91506141df8261407a565b91506141eb8284613dd3565b91508190509392505050565b600060208201905061420c6000830184613bec565b92915050565b600060a0820190506142276000830188613bec565b6142346020830187613bec565b81810360408301526142468186613c70565b9050818103606083015261425a8185613c70565b9050818103608083015261426e8184613cfb565b90509695505050505050565b600060a08201905061428f6000830188613bec565b61429c6020830187613bec565b6142a960408301866141ae565b6142b660608301856141ae565b81810360808301526142c88184613cfb565b90509695505050505050565b600060208201905081810360008301526142ee8184613bfb565b905092915050565b600060208201905081810360008301526143108184613c70565b905092915050565b600060408201905081810360008301526143328185613c70565b905081810360208301526143468184613c70565b90509392505050565b60006020820190506143646000830184613cce565b92915050565b600060208201905061437f6000830184613cdd565b92915050565b600060208201905061439a6000830184613cec565b92915050565b600060208201905081810360008301526143ba8184613d9a565b905092915050565b600060208201905081810360008301526143db81613e04565b9050919050565b600060208201905081810360008301526143fb81613e27565b9050919050565b6000602082019050818103600083015261441b81613e4a565b9050919050565b6000602082019050818103600083015261443b81613e6d565b9050919050565b6000602082019050818103600083015261445b81613e90565b9050919050565b6000602082019050818103600083015261447b81613eb3565b9050919050565b6000602082019050818103600083015261449b81613ed6565b9050919050565b600060208201905081810360008301526144bb81613ef9565b9050919050565b600060208201905081810360008301526144db81613f1c565b9050919050565b600060208201905081810360008301526144fb81613f3f565b9050919050565b6000602082019050818103600083015261451b81613f62565b9050919050565b6000602082019050818103600083015261453b81613f85565b9050919050565b6000602082019050818103600083015261455b81613fa8565b9050919050565b6000602082019050818103600083015261457b81613fee565b9050919050565b6000602082019050818103600083015261459b81614011565b9050919050565b600060208201905081810360008301526145bb81614034565b9050919050565b600060208201905081810360008301526145db81614057565b9050919050565b600060208201905081810360008301526145fb8161409d565b9050919050565b6000602082019050818103600083015261461c8184614104565b905092915050565b6000602082019050818103600083015261463e8184614148565b905092915050565b600060208201905061465b60008301846141ae565b92915050565b600060408201905061467660008301856141ae565b61468360208301846141ae565b9392505050565b600060808201905061469f60008301886141ae565b6146ac60208301876141ae565b6146b96040830186613bec565b81810360608301526146cc818486613d34565b90509695505050505050565b60006146e26146f3565b90506146ee8282614a59565b919050565b6000604051905090565b600067ffffffffffffffff82111561471857614717614bb9565b5b602082029050602081019050919050565b600067ffffffffffffffff82111561474457614743614bb9565b5b602082029050602081019050919050565b600067ffffffffffffffff8211156147705761476f614bb9565b5b61477982614c28565b9050602081019050919050565b6000819050602082019050919050565b6000819050602082019050919050565b600081519050919050565b600081519050919050565b600081519050919050565b600081519050919050565b6000602082019050919050565b6000602082019050919050565b600082825260208201905092915050565b600082825260208201905092915050565b600082825260208201905092915050565b600082825260208201905092915050565b600082825260208201905092915050565b600081905092915050565b6000614857826149a4565b9150614862836149a4565b9250827fffffffffffffffffffffffffffffffffffffffffffffffffffffffffffffffff0382111561489757614896614afd565b5b828201905092915050565b60006148ad826149a4565b91506148b8836149a4565b9250817fffffffffffffffffffffffffffffffffffffffffffffffffffffffffffffffff04831182151516156148f1576148f0614afd565b5b828202905092915050565b6000614907826149a4565b9150614912836149a4565b92508282101561492557614924614afd565b5b828203905092915050565b600061493b82614984565b9050919050565b60008115159050919050565b6000819050919050565b60007fffffffff0000000000000000000000000000000000000000000000000000000082169050919050565b600073ffffffffffffffffffffffffffffffffffffffff82169050919050565b6000819050919050565b600060ff82169050919050565b82818337600083830152505050565b60005b838110156149e85780820151818401526020810190506149cd565b838111156149f7576000848401525b50505050565b6000614a08826149a4565b91506000821415614a1c57614a1b614afd565b5b600182039050919050565b60006002820490506001821680614a3f57607f821691505b60208210811415614a5357614a52614b2c565b5b50919050565b614a6282614c28565b810181811067ffffffffffffffff82111715614a8157614a80614bb9565b5b80604052505050565b6000614a95826149a4565b91507fffffffffffffffffffffffffffffffffffffffffffffffffffffffffffffffff821415614ac857614ac7614afd565b5b600182019050919050565b6000614ade826149ae565b915060ff821415614af257614af1614afd565b5b600182019050919050565b7f4e487b7100000000000000000000000000000000000000000000000000000000600052601160045260246000fd5b7f4e487b7100000000000000000000000000000000000000000000000000000000600052602260045260246000fd5b7f4e487b7100000000000000000000000000000000000000000000000000000000600052603160045260246000fd5b7f4e487b7100000000000000000000000000000000000000000000000000000000600052603260045260246000fd5b7f4e487b7100000000000000000000000000000000000000000000000000000000600052604160045260246000fd5b600060033d1115614c075760046000803e614c04600051614c39565b90505b90565b600080fd5b600080fd5b600080fd5b600080fd5b600080fd5b600080fd5b6000601f19601f8301169050919050565b60008160e01c9050919050565b7f455243313135353a207472616e7366657220746f206e6f6e204552433131353560008201527f526563656976657220696d706c656d656e746572000000000000000000000000602082015250565b7f537472696e67733a20686578206c656e67746820696e73756666696369656e74600082015250565b7f455243313135353a204552433131353552656365697665722072656a6563746560008201527f6420746f6b656e73000000000000000000000000000000000000000000000000602082015250565b7f455243313135353a2062616c616e636520717565727920666f7220746865207a60008201527f65726f2061646472657373000000000000000000000000000000000000000000602082015250565b7f455243313135353a2063616c6c6572206973206e6f74206f776e6572206e6f7260008201527f20617070726f7665640000000000000000000000000000000000000000000000602082015250565b7f54686520746f6b656e20646f206e6f7420657869737473000000000000000000600082015250565b7f566572696669636174696f6e206661696c656400000000000000000000000000600082015250565b7f596f7520646f6e2774206861766520746865207065726d697373696f6e20746f60008201527f2067697665206f776e6572736869700000000000000000000000000000000000602082015250565b7f455243313135353a207472616e7366657220746f20746865207a65726f20616460008201527f6472657373000000000000000000000000000000000000000000000000000000602082015250565b7f455243313135353a207472616e736665722063616c6c6572206973206e6f742060008201527f6f776e6572206e6f7220617070726f7665640000000000000000000000000000602082015250565b7f455243313135355072657365744d696e7465725061757365723a206d7573742060008201527f68617665206d696e74657220726f6c6520746f206d696e740000000000000000602082015250565b7f455243313135353a20696e73756666696369656e742062616c616e636520666f60008201527f72207472616e7366657200000000000000000000000000000000000000000000602082015250565b7f596f75206e65656420746f20736574757020746865207665726966696361746960008201527f6f6e20636f6e7472616374206164647265737320666972737400000000000000602082015250565b7f416363657373436f6e74726f6c3a206163636f756e7420000000000000000000600082015250565b7f455243313135353a2073657474696e6720617070726f76616c2073746174757360008201527f20666f722073656c660000000000000000000000000000000000000000000000602082015250565b7f455243313135353a206163636f756e747320616e6420696473206c656e67746860008201527f206d69736d617463680000000000000000000000000000000000000000000000602082015250565b7f455243313135353a2069647320616e6420616d6f756e7473206c656e6774682060008201527f6d69736d61746368000000000000000000000000000000000000000000000000602082015250565b7f455243313135353a206d696e7420746f20746865207a65726f2061646472657360008201527f7300000000000000000000000000000000000000000000000000000000000000602082015250565b7f206973206d697373696e6720726f6c6520000000000000000000000000000000600082015250565b7f416363657373436f6e74726f6c3a2063616e206f6e6c792072656e6f756e636560008201527f20726f6c657320666f722073656c660000000000000000000000000000000000602082015250565b600060443d10156151c457615247565b6151cc6146f3565b60043d036004823e80513d602482011167ffffffffffffffff821117156151f4575050615247565b808201805167ffffffffffffffff8111156152125750505050615247565b80602083010160043d03850181111561522f575050505050615247565b61523e82602001850186614a59565b82955050505050505b90565b61525381614930565b811461525e57600080fd5b50565b61526a81614942565b811461527557600080fd5b50565b6152818161494e565b811461528c57600080fd5b50565b61529881614958565b81146152a357600080fd5b50565b6152af816149a4565b81146152ba57600080fd5b5056fea264697066735822122042c8d472b344684c27af05c951013361bd3e80afc8a2ac0c3e477f78d4562e6a64736f6c63430008070033",
  "immutableReferences": {},
  "source": "pragma solidity ^0.8.7;\r\n\r\nimport \"./interfaces/INFCool.sol\";\r\nimport \"./interfaces/IPhoneVerification.sol\";\r\nimport \"./ERC1155Access.sol\";\r\nimport \"@openzeppelin/contracts/token/ERC1155/utils/ERC1155Holder.sol\";\r\n\r\ncontract NFCool is INFCool, ERC1155Access, ERC1155Holder {\r\n    string brandName;\r\n    uint8 tokensCount;\r\n\r\n    address private _verificationContract;\r\n\r\n    mapping (uint256 => uint256) private _tokenUnitsCount;\r\n    mapping(uint256 => TokenData) private _tokenData;\r\n    mapping(uint256 => mapping(uint256 => TokenUnitData)) private _tokenUnitData;\r\n\r\n    constructor(string memory _brandName) ERC1155Access(\"\") {\r\n        brandName = _brandName;\r\n    }\r\n\r\n    function _setTokenURI(uint256 tokenId, string memory _tokenURI) internal virtual {\r\n        _tokenData[tokenId].uri = _tokenURI;\r\n    }\r\n\r\n    function _exists(uint256 tokenId) private view returns (bool) {\r\n        return tokenId < tokensCount;\r\n    }\r\n\r\n    function getAllTokens() public view virtual override returns (TokenData[] memory) {\r\n        TokenData[] memory tokens = new TokenData[](tokensCount);\r\n\r\n        for (uint256 i = 0 ; i < tokensCount ; i++) {\r\n            tokens[i] = _tokenData[i];\r\n        }\r\n\r\n        return tokens;\r\n    }\r\n\r\n    function getTokensCount() public view virtual override returns (uint256) {\r\n        return tokensCount;\r\n    }\r\n\r\n    function tokenData(uint256 tokenId) public view virtual override returns (TokenData memory) {\r\n        return _tokenData[tokenId];\r\n    }\r\n\r\n    function tokenUnitData(uint256 tokenId, uint256 tokenUnitId) public view virtual override returns (TokenUnitData memory) {\r\n        return _tokenUnitData[tokenId][tokenUnitId];\r\n    }\r\n\r\n    function mintToken(string calldata tokenUri, string calldata tokenName, bytes memory data) external virtual override returns (uint256) {\r\n        require(hasRole(MINTER_ROLE, _msgSender()), \"ERC1155PresetMinterPauser: must have minter role to mint\");\r\n\r\n        _mint(address(this), tokensCount, 0, data);\r\n        _tokenData[tokensCount] = TokenData(tokenUri, tokenName);\r\n\r\n        tokensCount++;\r\n        return tokensCount;\r\n    }\r\n\r\n    function mintTokenUnit(uint256 tokenId, string calldata nfcId, bytes memory data) external virtual override returns (uint256) {\r\n        require(hasRole(MINTER_ROLE, _msgSender()), \"ERC1155PresetMinterPauser: must have minter role to mint\");\r\n        require(_exists(tokenId), \"The token do not exists\");\r\n\r\n        _mint(address(this), _tokenUnitsCount[tokenId], 1, data);\r\n        _tokenUnitData[tokenId][_tokenUnitsCount[tokenId]] = TokenUnitData(address(this), nfcId, \"minted\");\r\n\r\n        _tokenUnitsCount[tokenId]++;\r\n        return _tokenUnitsCount[tokenId];\r\n    }\r\n\r\n    function requestOwnership(uint256 _tokenId, uint256 _unitId, address _to, string calldata _pin) external virtual override returns (bytes32 requestId) {\r\n        require(_verificationContract != address(0), \"You need to setup the verification contract address first\");\r\n\r\n        return IPhoneVerification(_verificationContract).requestOwnership(_tokenId, _unitId, _to, _pin);\r\n    }\r\n\r\n    function giveOwnership(uint256 _tokenId, uint256 _unitId, address _to, bool _valid) external virtual override {\r\n        require(msg.sender == _verificationContract, \"You don't have the permission to give ownership\");\r\n        require(_valid, \"Verification failed\");\r\n\r\n        _tokenUnitData[_tokenId][_unitId].owner = _to;\r\n        _tokenUnitData[_tokenId][_unitId].status = \"owned\";\r\n        _safeTransferFrom(address(this), _to, _tokenId, 1, '');\r\n    }\r\n\r\n    function setVerificationContract(address _contract) external virtual override {\r\n        require(hasRole(DEFAULT_ADMIN_ROLE, _msgSender()), \"ERC1155PresetMinterPauser: must have minter role to mint\");\r\n        _verificationContract = _contract;\r\n    }\r\n\r\n    function supportsInterface(bytes4 interfaceId) public view virtual override(ERC1155Access, ERC1155Receiver) returns (bool) {\r\n        return super.supportsInterface(interfaceId);\r\n    }\r\n}\r\n",
  "sourcePath": "C:\\Users\\smlvi\\WebstormProjects\\nfcool-smart-contracts\\contracts\\NFCool.sol",
  "compiler": {
    "name": "solc",
    "version": "0.8.7+commit.e28d00a7.Emscripten.clang"
  },
  "schemaVersion": "3.4.3",
  "updatedAt": "2021-11-18T10:14:29.293Z",
  "devdoc": {
    "kind": "dev",
    "methods": {
      "balanceOf(address,uint256)": {
        "details": "See {IERC1155-balanceOf}. Requirements: - `account` cannot be the zero address."
      },
      "balanceOfBatch(address[],uint256[])": {
        "details": "See {IERC1155-balanceOfBatch}. Requirements: - `accounts` and `ids` must have the same length."
      },
      "getRoleAdmin(bytes32)": {
        "details": "Returns the admin role that controls `role`. See {grantRole} and {revokeRole}. To change a role's admin, use {_setRoleAdmin}."
      },
      "getRoleMember(bytes32,uint256)": {
        "details": "Returns one of the accounts that have `role`. `index` must be a value between 0 and {getRoleMemberCount}, non-inclusive. Role bearers are not sorted in any particular way, and their ordering may change at any point. WARNING: When using {getRoleMember} and {getRoleMemberCount}, make sure you perform all queries on the same block. See the following https://forum.openzeppelin.com/t/iterating-over-elements-on-enumerableset-in-openzeppelin-contracts/2296[forum post] for more information."
      },
      "getRoleMemberCount(bytes32)": {
        "details": "Returns the number of accounts that have `role`. Can be used together with {getRoleMember} to enumerate all bearers of a role."
      },
      "grantRole(bytes32,address)": {
        "details": "Overload {grantRole} to track enumerable memberships"
      },
      "hasRole(bytes32,address)": {
        "details": "Returns `true` if `account` has been granted `role`."
      },
      "isApprovedForAll(address,address)": {
        "details": "See {IERC1155-isApprovedForAll}."
      },
      "renounceRole(bytes32,address)": {
        "details": "Overload {renounceRole} to track enumerable memberships"
      },
      "revokeRole(bytes32,address)": {
        "details": "Overload {revokeRole} to track enumerable memberships"
      },
      "safeBatchTransferFrom(address,address,uint256[],uint256[],bytes)": {
        "details": "See {IERC1155-safeBatchTransferFrom}."
      },
      "safeTransferFrom(address,address,uint256,uint256,bytes)": {
        "details": "See {IERC1155-safeTransferFrom}."
      },
      "setApprovalForAll(address,bool)": {
        "details": "See {IERC1155-setApprovalForAll}."
      },
      "uri(uint256)": {
        "details": "See {IERC1155MetadataURI-uri}. This implementation returns the same URI for *all* token types. It relies on the token type ID substitution mechanism https://eips.ethereum.org/EIPS/eip-1155#metadata[defined in the EIP]. Clients calling this function must replace the `\\{id\\}` substring with the actual token type ID."
      }
    },
    "version": 1
  },
  "userdoc": {
    "kind": "user",
    "methods": {},
    "version": 1
  }
}