{
  "contractName": "NFCool",
  "abi": [
    {
      "inputs": [
        {
          "internalType": "string",
          "name": "_brandName",
          "type": "string"
        }
      ],
      "stateMutability": "nonpayable",
      "type": "constructor"
    },
    {
      "anonymous": false,
      "inputs": [
        {
          "indexed": true,
          "internalType": "address",
          "name": "account",
          "type": "address"
        },
        {
          "indexed": true,
          "internalType": "address",
          "name": "operator",
          "type": "address"
        },
        {
          "indexed": false,
          "internalType": "bool",
          "name": "approved",
          "type": "bool"
        }
      ],
      "name": "ApprovalForAll",
      "type": "event"
    },
    {
      "anonymous": false,
      "inputs": [
        {
          "indexed": true,
          "internalType": "bytes32",
          "name": "role",
          "type": "bytes32"
        },
        {
          "indexed": true,
          "internalType": "bytes32",
          "name": "previousAdminRole",
          "type": "bytes32"
        },
        {
          "indexed": true,
          "internalType": "bytes32",
          "name": "newAdminRole",
          "type": "bytes32"
        }
      ],
      "name": "RoleAdminChanged",
      "type": "event"
    },
    {
      "anonymous": false,
      "inputs": [
        {
          "indexed": true,
          "internalType": "bytes32",
          "name": "role",
          "type": "bytes32"
        },
        {
          "indexed": true,
          "internalType": "address",
          "name": "account",
          "type": "address"
        },
        {
          "indexed": true,
          "internalType": "address",
          "name": "sender",
          "type": "address"
        }
      ],
      "name": "RoleGranted",
      "type": "event"
    },
    {
      "anonymous": false,
      "inputs": [
        {
          "indexed": true,
          "internalType": "bytes32",
          "name": "role",
          "type": "bytes32"
        },
        {
          "indexed": true,
          "internalType": "address",
          "name": "account",
          "type": "address"
        },
        {
          "indexed": true,
          "internalType": "address",
          "name": "sender",
          "type": "address"
        }
      ],
      "name": "RoleRevoked",
      "type": "event"
    },
    {
      "anonymous": false,
      "inputs": [
        {
          "indexed": true,
          "internalType": "address",
          "name": "operator",
          "type": "address"
        },
        {
          "indexed": true,
          "internalType": "address",
          "name": "from",
          "type": "address"
        },
        {
          "indexed": true,
          "internalType": "address",
          "name": "to",
          "type": "address"
        },
        {
          "indexed": false,
          "internalType": "uint256[]",
          "name": "ids",
          "type": "uint256[]"
        },
        {
          "indexed": false,
          "internalType": "uint256[]",
          "name": "values",
          "type": "uint256[]"
        }
      ],
      "name": "TransferBatch",
      "type": "event"
    },
    {
      "anonymous": false,
      "inputs": [
        {
          "indexed": true,
          "internalType": "address",
          "name": "operator",
          "type": "address"
        },
        {
          "indexed": true,
          "internalType": "address",
          "name": "from",
          "type": "address"
        },
        {
          "indexed": true,
          "internalType": "address",
          "name": "to",
          "type": "address"
        },
        {
          "indexed": false,
          "internalType": "uint256",
          "name": "id",
          "type": "uint256"
        },
        {
          "indexed": false,
          "internalType": "uint256",
          "name": "value",
          "type": "uint256"
        }
      ],
      "name": "TransferSingle",
      "type": "event"
    },
    {
      "anonymous": false,
      "inputs": [
        {
          "indexed": false,
          "internalType": "string",
          "name": "value",
          "type": "string"
        },
        {
          "indexed": true,
          "internalType": "uint256",
          "name": "id",
          "type": "uint256"
        }
      ],
      "name": "URI",
      "type": "event"
    },
    {
      "inputs": [],
      "name": "DEFAULT_ADMIN_ROLE",
      "outputs": [
        {
          "internalType": "bytes32",
          "name": "",
          "type": "bytes32"
        }
      ],
      "stateMutability": "view",
      "type": "function"
    },
    {
      "inputs": [],
      "name": "MINTER_ROLE",
      "outputs": [
        {
          "internalType": "bytes32",
          "name": "",
          "type": "bytes32"
        }
      ],
      "stateMutability": "view",
      "type": "function"
    },
    {
      "inputs": [
        {
          "internalType": "address",
          "name": "account",
          "type": "address"
        },
        {
          "internalType": "uint256",
          "name": "id",
          "type": "uint256"
        }
      ],
      "name": "balanceOf",
      "outputs": [
        {
          "internalType": "uint256",
          "name": "",
          "type": "uint256"
        }
      ],
      "stateMutability": "view",
      "type": "function"
    },
    {
      "inputs": [
        {
          "internalType": "address[]",
          "name": "accounts",
          "type": "address[]"
        },
        {
          "internalType": "uint256[]",
          "name": "ids",
          "type": "uint256[]"
        }
      ],
      "name": "balanceOfBatch",
      "outputs": [
        {
          "internalType": "uint256[]",
          "name": "",
          "type": "uint256[]"
        }
      ],
      "stateMutability": "view",
      "type": "function"
    },
    {
      "inputs": [
        {
          "internalType": "bytes32",
          "name": "role",
          "type": "bytes32"
        }
      ],
      "name": "getRoleAdmin",
      "outputs": [
        {
          "internalType": "bytes32",
          "name": "",
          "type": "bytes32"
        }
      ],
      "stateMutability": "view",
      "type": "function"
    },
    {
      "inputs": [
        {
          "internalType": "bytes32",
          "name": "role",
          "type": "bytes32"
        },
        {
          "internalType": "uint256",
          "name": "index",
          "type": "uint256"
        }
      ],
      "name": "getRoleMember",
      "outputs": [
        {
          "internalType": "address",
          "name": "",
          "type": "address"
        }
      ],
      "stateMutability": "view",
      "type": "function"
    },
    {
      "inputs": [
        {
          "internalType": "bytes32",
          "name": "role",
          "type": "bytes32"
        }
      ],
      "name": "getRoleMemberCount",
      "outputs": [
        {
          "internalType": "uint256",
          "name": "",
          "type": "uint256"
        }
      ],
      "stateMutability": "view",
      "type": "function"
    },
    {
      "inputs": [
        {
          "internalType": "bytes32",
          "name": "role",
          "type": "bytes32"
        },
        {
          "internalType": "address",
          "name": "account",
          "type": "address"
        }
      ],
      "name": "grantRole",
      "outputs": [],
      "stateMutability": "nonpayable",
      "type": "function"
    },
    {
      "inputs": [
        {
          "internalType": "bytes32",
          "name": "role",
          "type": "bytes32"
        },
        {
          "internalType": "address",
          "name": "account",
          "type": "address"
        }
      ],
      "name": "hasRole",
      "outputs": [
        {
          "internalType": "bool",
          "name": "",
          "type": "bool"
        }
      ],
      "stateMutability": "view",
      "type": "function"
    },
    {
      "inputs": [
        {
          "internalType": "address",
          "name": "account",
          "type": "address"
        },
        {
          "internalType": "address",
          "name": "operator",
          "type": "address"
        }
      ],
      "name": "isApprovedForAll",
      "outputs": [
        {
          "internalType": "bool",
          "name": "",
          "type": "bool"
        }
      ],
      "stateMutability": "view",
      "type": "function"
    },
    {
      "inputs": [
        {
          "internalType": "address",
          "name": "",
          "type": "address"
        },
        {
          "internalType": "address",
          "name": "",
          "type": "address"
        },
        {
          "internalType": "uint256[]",
          "name": "",
          "type": "uint256[]"
        },
        {
          "internalType": "uint256[]",
          "name": "",
          "type": "uint256[]"
        },
        {
          "internalType": "bytes",
          "name": "",
          "type": "bytes"
        }
      ],
      "name": "onERC1155BatchReceived",
      "outputs": [
        {
          "internalType": "bytes4",
          "name": "",
          "type": "bytes4"
        }
      ],
      "stateMutability": "nonpayable",
      "type": "function"
    },
    {
      "inputs": [
        {
          "internalType": "address",
          "name": "",
          "type": "address"
        },
        {
          "internalType": "address",
          "name": "",
          "type": "address"
        },
        {
          "internalType": "uint256",
          "name": "",
          "type": "uint256"
        },
        {
          "internalType": "uint256",
          "name": "",
          "type": "uint256"
        },
        {
          "internalType": "bytes",
          "name": "",
          "type": "bytes"
        }
      ],
      "name": "onERC1155Received",
      "outputs": [
        {
          "internalType": "bytes4",
          "name": "",
          "type": "bytes4"
        }
      ],
      "stateMutability": "nonpayable",
      "type": "function"
    },
    {
      "inputs": [
        {
          "internalType": "bytes32",
          "name": "role",
          "type": "bytes32"
        },
        {
          "internalType": "address",
          "name": "account",
          "type": "address"
        }
      ],
      "name": "renounceRole",
      "outputs": [],
      "stateMutability": "nonpayable",
      "type": "function"
    },
    {
      "inputs": [
        {
          "internalType": "bytes32",
          "name": "role",
          "type": "bytes32"
        },
        {
          "internalType": "address",
          "name": "account",
          "type": "address"
        }
      ],
      "name": "revokeRole",
      "outputs": [],
      "stateMutability": "nonpayable",
      "type": "function"
    },
    {
      "inputs": [
        {
          "internalType": "address",
          "name": "from",
          "type": "address"
        },
        {
          "internalType": "address",
          "name": "to",
          "type": "address"
        },
        {
          "internalType": "uint256[]",
          "name": "ids",
          "type": "uint256[]"
        },
        {
          "internalType": "uint256[]",
          "name": "amounts",
          "type": "uint256[]"
        },
        {
          "internalType": "bytes",
          "name": "data",
          "type": "bytes"
        }
      ],
      "name": "safeBatchTransferFrom",
      "outputs": [],
      "stateMutability": "nonpayable",
      "type": "function"
    },
    {
      "inputs": [
        {
          "internalType": "address",
          "name": "from",
          "type": "address"
        },
        {
          "internalType": "address",
          "name": "to",
          "type": "address"
        },
        {
          "internalType": "uint256",
          "name": "id",
          "type": "uint256"
        },
        {
          "internalType": "uint256",
          "name": "amount",
          "type": "uint256"
        },
        {
          "internalType": "bytes",
          "name": "data",
          "type": "bytes"
        }
      ],
      "name": "safeTransferFrom",
      "outputs": [],
      "stateMutability": "nonpayable",
      "type": "function"
    },
    {
      "inputs": [
        {
          "internalType": "address",
          "name": "operator",
          "type": "address"
        },
        {
          "internalType": "bool",
          "name": "approved",
          "type": "bool"
        }
      ],
      "name": "setApprovalForAll",
      "outputs": [],
      "stateMutability": "nonpayable",
      "type": "function"
    },
    {
      "inputs": [
        {
          "internalType": "uint256",
          "name": "",
          "type": "uint256"
        }
      ],
      "name": "uri",
      "outputs": [
        {
          "internalType": "string",
          "name": "",
          "type": "string"
        }
      ],
      "stateMutability": "view",
      "type": "function"
    },
    {
      "inputs": [],
      "name": "getAllTokens",
      "outputs": [
        {
          "components": [
            {
              "internalType": "string",
              "name": "uri",
              "type": "string"
            },
            {
              "internalType": "string",
              "name": "name",
              "type": "string"
            }
          ],
          "internalType": "struct TokenData[]",
          "name": "",
          "type": "tuple[]"
        }
      ],
      "stateMutability": "view",
      "type": "function"
    },
    {
      "inputs": [],
      "name": "getTokensCount",
      "outputs": [
        {
          "internalType": "uint256",
          "name": "",
          "type": "uint256"
        }
      ],
      "stateMutability": "view",
      "type": "function"
    },
    {
      "inputs": [
        {
          "internalType": "uint256",
          "name": "tokenId",
          "type": "uint256"
        }
      ],
      "name": "tokenData",
      "outputs": [
        {
          "components": [
            {
              "internalType": "string",
              "name": "uri",
              "type": "string"
            },
            {
              "internalType": "string",
              "name": "name",
              "type": "string"
            }
          ],
          "internalType": "struct TokenData",
          "name": "",
          "type": "tuple"
        }
      ],
      "stateMutability": "view",
      "type": "function"
    },
    {
      "inputs": [
        {
          "internalType": "uint256",
          "name": "tokenId",
          "type": "uint256"
        },
        {
          "internalType": "uint256",
          "name": "tokenUnitId",
          "type": "uint256"
        }
      ],
      "name": "tokenUnitData",
      "outputs": [
        {
          "components": [
            {
              "internalType": "address",
              "name": "owner",
              "type": "address"
            },
            {
              "internalType": "string",
              "name": "nfcId",
              "type": "string"
            },
            {
              "internalType": "string",
              "name": "status",
              "type": "string"
            }
          ],
          "internalType": "struct TokenUnitData",
          "name": "",
          "type": "tuple"
        }
      ],
      "stateMutability": "view",
      "type": "function"
    },
    {
      "inputs": [
        {
          "internalType": "string",
          "name": "tokenUri",
          "type": "string"
        },
        {
          "internalType": "string",
          "name": "tokenName",
          "type": "string"
        },
        {
          "internalType": "bytes",
          "name": "data",
          "type": "bytes"
        }
      ],
      "name": "mintToken",
      "outputs": [
        {
          "internalType": "uint256",
          "name": "",
          "type": "uint256"
        }
      ],
      "stateMutability": "nonpayable",
      "type": "function"
    },
    {
      "inputs": [
        {
          "internalType": "uint256",
          "name": "tokenId",
          "type": "uint256"
        },
        {
          "internalType": "string",
          "name": "nfcId",
          "type": "string"
        },
        {
          "internalType": "bytes",
          "name": "data",
          "type": "bytes"
        }
      ],
      "name": "mintTokenUnit",
      "outputs": [
        {
          "internalType": "uint256",
          "name": "",
          "type": "uint256"
        }
      ],
      "stateMutability": "nonpayable",
      "type": "function"
    },
    {
      "inputs": [
        {
          "internalType": "string",
          "name": "_tokenId",
          "type": "string"
        },
        {
          "internalType": "string",
          "name": "_unitId",
          "type": "string"
        },
        {
          "internalType": "string",
          "name": "_to",
          "type": "string"
        }
      ],
      "name": "requestOwnership",
      "outputs": [
        {
          "internalType": "bytes32",
          "name": "requestId",
          "type": "bytes32"
        }
      ],
      "stateMutability": "nonpayable",
      "type": "function"
    },
    {
      "inputs": [
        {
          "internalType": "uint256",
          "name": "_tokenId",
          "type": "uint256"
        },
        {
          "internalType": "uint256",
          "name": "_unitId",
          "type": "uint256"
        },
        {
          "internalType": "address",
          "name": "_to",
          "type": "address"
        },
        {
          "internalType": "bool",
          "name": "_valid",
          "type": "bool"
        }
      ],
      "name": "giveOwnership",
      "outputs": [],
      "stateMutability": "nonpayable",
      "type": "function"
    },
    {
      "inputs": [
        {
          "internalType": "address",
          "name": "_contract",
          "type": "address"
        }
      ],
      "name": "setVerificationContract",
      "outputs": [],
      "stateMutability": "nonpayable",
      "type": "function"
    },
    {
      "inputs": [
        {
          "internalType": "bytes4",
          "name": "interfaceId",
          "type": "bytes4"
        }
      ],
      "name": "supportsInterface",
      "outputs": [
        {
          "internalType": "bool",
          "name": "",
          "type": "bool"
        }
      ],
      "stateMutability": "view",
      "type": "function"
    }
  ],
  "bytecode": "0x60806040523480156200001157600080fd5b50604051620059cb380380620059cb8339818101604052810190620000379190620004c0565b60405180602001604052806000815250806200005981620000e060201b60201c565b506200007e6000801b62000072620000fc60201b60201c565b6200010460201b60201c565b620000bf7f9f2df0fed2c77648de5860a4cc508cd0818c85b8b8a1ab4ceeef8d981c8956a6620000b3620000fc60201b60201c565b6200010460201b60201c565b508060059080519060200190620000d892919062000392565b505062000695565b8060049080519060200190620000f892919062000392565b5050565b600033905090565b6200011b82826200014c60201b62001b181760201c565b6200014781600160008581526020019081526020016000206200016260201b62001b261790919060201c565b505050565b6200015e82826200019a60201b60201c565b5050565b600062000192836000018373ffffffffffffffffffffffffffffffffffffffff1660001b6200028b60201b60201c565b905092915050565b620001ac82826200030560201b60201c565b6200028757600160008084815260200190815260200160002060000160008373ffffffffffffffffffffffffffffffffffffffff1673ffffffffffffffffffffffffffffffffffffffff16815260200190815260200160002060006101000a81548160ff0219169083151502179055506200022c620000fc60201b60201c565b73ffffffffffffffffffffffffffffffffffffffff168173ffffffffffffffffffffffffffffffffffffffff16837f2f8788117e7eff1d82e926ec794901d17c78024a50270940304540a733656f0d60405160405180910390a45b5050565b60006200029f83836200036f60201b60201c565b620002fa578260000182908060018154018082558091505060019003906000526020600020016000909190919091505582600001805490508360010160008481526020019081526020016000208190555060019050620002ff565b600090505b92915050565b600080600084815260200190815260200160002060000160008373ffffffffffffffffffffffffffffffffffffffff1673ffffffffffffffffffffffffffffffffffffffff16815260200190815260200160002060009054906101000a900460ff16905092915050565b600080836001016000848152602001908152602001600020541415905092915050565b828054620003a090620005a6565b90600052602060002090601f016020900481019282620003c4576000855562000410565b82601f10620003df57805160ff191683800117855562000410565b8280016001018555821562000410579182015b828111156200040f578251825591602001919060010190620003f2565b5b5090506200041f919062000423565b5090565b5b808211156200043e57600081600090555060010162000424565b5090565b60006200045962000453846200053a565b62000511565b90508281526020810184848401111562000478576200047762000675565b5b6200048584828562000570565b509392505050565b600082601f830112620004a557620004a462000670565b5b8151620004b784826020860162000442565b91505092915050565b600060208284031215620004d957620004d86200067f565b5b600082015167ffffffffffffffff811115620004fa57620004f96200067a565b5b62000508848285016200048d565b91505092915050565b60006200051d62000530565b90506200052b8282620005dc565b919050565b6000604051905090565b600067ffffffffffffffff82111562000558576200055762000641565b5b620005638262000684565b9050602081019050919050565b60005b838110156200059057808201518184015260208101905062000573565b83811115620005a0576000848401525b50505050565b60006002820490506001821680620005bf57607f821691505b60208210811415620005d657620005d562000612565b5b50919050565b620005e78262000684565b810181811067ffffffffffffffff8211171562000609576200060862000641565b5b80604052505050565b7f4e487b7100000000000000000000000000000000000000000000000000000000600052602260045260246000fd5b7f4e487b7100000000000000000000000000000000000000000000000000000000600052604160045260246000fd5b600080fd5b600080fd5b600080fd5b600080fd5b6000601f19601f8301169050919050565b61532680620006a56000396000f3fe608060405234801561001057600080fd5b50600436106101c35760003560e01c806391d14854116100f9578063ca15c87311610097578063e985e9c511610071578063e985e9c514610588578063f23a6e61146105b8578063f242432a146105e8578063fb48d6be14610604576101c3565b8063ca15c8731461051e578063d53913931461054e578063d547741f1461056c576101c3565b8063a8790d1f116100d3578063a8790d1f14610472578063b4b5b48f1461048e578063bc197c81146104be578063c3d04279146104ee576101c3565b806391d1485414610408578063a217fddf14610438578063a22cb46514610456576101c3565b80632f2ff15d116101665780633e80bb74116101405780633e80bb74146103485780634e1273f4146103785780636648b1cb146103a85780639010d07c146103d8576101c3565b80632f2ff15d146102f257806336568abe1461030e5780633962f82d1461032a576101c3565b80632175bf85116101a25780632175bf8514610258578063248a9ca3146102885780632a5c792a146102b85780632eb2c2d6146102d6576101c3565b8062fdd58e146101c857806301ffc9a7146101f85780630e89341c14610228575b600080fd5b6101e260048036038101906101dd919061372b565b610620565b6040516101ef91906146c7565b60405180910390f35b610212600480360381019061020d91906138bd565b6106ea565b60405161021f919061437e565b60405180910390f35b610242600480360381019061023d9190613a7c565b6106fc565b60405161024f9190614421565b60405180910390f35b610272600480360381019061026d91906139c8565b610790565b60405161027f9190614399565b60405180910390f35b6102a2600480360381019061029d91906137e3565b6108e6565b6040516102af9190614399565b60405180910390f35b6102c0610905565b6040516102cd9190614303565b60405180910390f35b6102f060048036038101906102eb9190613585565b610b09565b005b61030c6004803603810190610307919061383d565b610baa565b005b6103286004803603810190610323919061383d565b610bde565b005b610332610c12565b60405161033f91906146c7565b60405180910390f35b610362600480360381019061035d9190613b39565b610c2c565b60405161036f91906146a5565b60405180910390f35b610392600480360381019061038d919061376b565b610de5565b60405161039f9190614325565b60405180910390f35b6103c260048036038101906103bd9190613917565b610efe565b6040516103cf91906146c7565b60405180910390f35b6103f260048036038101906103ed919061387d565b6110e4565b6040516103ff9190614226565b60405180910390f35b610422600480360381019061041d919061383d565b611113565b60405161042f919061437e565b60405180910390f35b61044061117d565b60405161044d9190614399565b60405180910390f35b610470600480360381019061046b91906136eb565b611184565b005b61048c60048036038101906104879190613b79565b611305565b005b6104a860048036038101906104a39190613a7c565b6114cf565b6040516104b59190614683565b60405180910390f35b6104d860048036038101906104d39190613585565b611620565b6040516104e591906143b4565b60405180910390f35b61050860048036038101906105039190613aa9565b611635565b60405161051591906146c7565b60405180910390f35b610538600480360381019061053391906137e3565b6118bb565b60405161054591906146c7565b60405180910390f35b6105566118df565b6040516105639190614399565b60405180910390f35b6105866004803603810190610581919061383d565b611903565b005b6105a2600480360381019061059d9190613545565b611937565b6040516105af919061437e565b60405180910390f35b6105d260048036038101906105cd9190613654565b6119cb565b6040516105df91906143b4565b60405180910390f35b61060260048036038101906105fd9190613654565b6119e0565b005b61061e60048036038101906106199190613518565b611a81565b005b60008073ffffffffffffffffffffffffffffffffffffffff168373ffffffffffffffffffffffffffffffffffffffff161415610691576040517f08c379a0000000000000000000000000000000000000000000000000000000008152600401610688906144a3565b60405180910390fd5b6002600083815260200190815260200160002060008473ffffffffffffffffffffffffffffffffffffffff1673ffffffffffffffffffffffffffffffffffffffff16815260200190815260200160002054905092915050565b60006106f582611b56565b9050919050565b60606004805461070b90614a5a565b80601f016020809104026020016040519081016040528092919081815260200182805461073790614a5a565b80156107845780601f1061075957610100808354040283529160200191610784565b820191906000526020600020905b81548152906001019060200180831161076757829003601f168201915b50505050509050919050565b60008073ffffffffffffffffffffffffffffffffffffffff16600660019054906101000a900473ffffffffffffffffffffffffffffffffffffffff1673ffffffffffffffffffffffffffffffffffffffff161415610823576040517f08c379a000000000000000000000000000000000000000000000000000000000815260040161081a906145c3565b60405180910390fd5b600660019054906101000a900473ffffffffffffffffffffffffffffffffffffffff1673ffffffffffffffffffffffffffffffffffffffff16632175bf858888888888886040518763ffffffff1660e01b8152600401610888969594939291906143cf565b602060405180830381600087803b1580156108a257600080fd5b505af11580156108b6573d6000803e3d6000fd5b505050506040513d601f19601f820116820180604052508101906108da9190613810565b90509695505050505050565b6000806000838152602001908152602001600020600101549050919050565b60606000600660009054906101000a900460ff1660ff1667ffffffffffffffff81111561093557610934614bec565b5b60405190808252806020026020018201604052801561096e57816020015b61095b61318f565b8152602001906001900390816109535790505b50905060005b600660009054906101000a900460ff1660ff16811015610b0157600860008281526020019081526020016000206040518060400160405290816000820180546109bc90614a5a565b80601f01602080910402602001604051908101604052809291908181526020018280546109e890614a5a565b8015610a355780601f10610a0a57610100808354040283529160200191610a35565b820191906000526020600020905b815481529060010190602001808311610a1857829003601f168201915b50505050508152602001600182018054610a4e90614a5a565b80601f0160208091040260200160405190810160405280929190818152602001828054610a7a90614a5a565b8015610ac75780601f10610a9c57610100808354040283529160200191610ac7565b820191906000526020600020905b815481529060010190602001808311610aaa57829003601f168201915b505050505081525050828281518110610ae357610ae2614bbd565b5b60200260200101819052508080610af990614abd565b915050610974565b508091505090565b610b11611bd0565b73ffffffffffffffffffffffffffffffffffffffff168573ffffffffffffffffffffffffffffffffffffffff161480610b575750610b5685610b51611bd0565b611937565b5b610b96576040517f08c379a0000000000000000000000000000000000000000000000000000000008152600401610b8d90614563565b60405180910390fd5b610ba38585858585611bd8565b5050505050565b610bb48282611eef565b610bd98160016000858152602001908152602001600020611b2690919063ffffffff16565b505050565b610be88282611f18565b610c0d8160016000858152602001908152602001600020611f9b90919063ffffffff16565b505050565b6000600660009054906101000a900460ff1660ff16905090565b610c346131a9565b6009600084815260200190815260200160002060008381526020019081526020016000206040518060600160405290816000820160009054906101000a900473ffffffffffffffffffffffffffffffffffffffff1673ffffffffffffffffffffffffffffffffffffffff1673ffffffffffffffffffffffffffffffffffffffff168152602001600182018054610cc990614a5a565b80601f0160208091040260200160405190810160405280929190818152602001828054610cf590614a5a565b8015610d425780601f10610d1757610100808354040283529160200191610d42565b820191906000526020600020905b815481529060010190602001808311610d2557829003601f168201915b50505050508152602001600282018054610d5b90614a5a565b80601f0160208091040260200160405190810160405280929190818152602001828054610d8790614a5a565b8015610dd45780601f10610da957610100808354040283529160200191610dd4565b820191906000526020600020905b815481529060010190602001808311610db757829003601f168201915b505050505081525050905092915050565b60608151835114610e2b576040517f08c379a0000000000000000000000000000000000000000000000000000000008152600401610e2290614603565b60405180910390fd5b6000835167ffffffffffffffff811115610e4857610e47614bec565b5b604051908082528060200260200182016040528015610e765781602001602082028036833780820191505090505b50905060005b8451811015610ef357610ec3858281518110610e9b57610e9a614bbd565b5b6020026020010151858381518110610eb657610eb5614bbd565b5b6020026020010151610620565b828281518110610ed657610ed5614bbd565b5b60200260200101818152505080610eec90614abd565b9050610e7c565b508091505092915050565b6000610f317f9f2df0fed2c77648de5860a4cc508cd0818c85b8b8a1ab4ceeef8d981c8956a6610f2c611bd0565b611113565b610f70576040517f08c379a0000000000000000000000000000000000000000000000000000000008152600401610f6790614583565b60405180910390fd5b610f8f30600660009054906101000a900460ff1660ff16600085611fcb565b604051806040016040528087878080601f016020809104026020016040519081016040528093929190818152602001838380828437600081840152601f19601f82011690508083019250505050505050815260200185858080601f016020809104026020016040519081016040528093929190818152602001838380828437600081840152601f19601f8201169050808301925050505050505081525060086000600660009054906101000a900460ff1660ff168152602001908152602001600020600082015181600001908051906020019061106d9291906131e0565b50602082015181600101908051906020019061108a9291906131e0565b509050506006600081819054906101000a900460ff16809291906110ad90614b06565b91906101000a81548160ff021916908360ff16021790555050600660009054906101000a900460ff1660ff16905095945050505050565b600061110b826001600086815260200190815260200160002061216290919063ffffffff16565b905092915050565b600080600084815260200190815260200160002060000160008373ffffffffffffffffffffffffffffffffffffffff1673ffffffffffffffffffffffffffffffffffffffff16815260200190815260200160002060009054906101000a900460ff16905092915050565b6000801b81565b8173ffffffffffffffffffffffffffffffffffffffff166111a3611bd0565b73ffffffffffffffffffffffffffffffffffffffff1614156111fa576040517f08c379a00000000000000000000000000000000000000000000000000000000081526004016111f1906145e3565b60405180910390fd5b8060036000611207611bd0565b73ffffffffffffffffffffffffffffffffffffffff1673ffffffffffffffffffffffffffffffffffffffff16815260200190815260200160002060008473ffffffffffffffffffffffffffffffffffffffff1673ffffffffffffffffffffffffffffffffffffffff16815260200190815260200160002060006101000a81548160ff0219169083151502179055508173ffffffffffffffffffffffffffffffffffffffff166112b4611bd0565b73ffffffffffffffffffffffffffffffffffffffff167f17307eab39ab6107e8899845ad3d59bd9653f200f220920489ca2b5937696c31836040516112f9919061437e565b60405180910390a35050565b600660019054906101000a900473ffffffffffffffffffffffffffffffffffffffff1673ffffffffffffffffffffffffffffffffffffffff163373ffffffffffffffffffffffffffffffffffffffff1614611395576040517f08c379a000000000000000000000000000000000000000000000000000000000815260040161138c90614523565b60405180910390fd5b806113d5576040517f08c379a00000000000000000000000000000000000000000000000000000000081526004016113cc90614503565b60405180910390fd5b8160096000868152602001908152602001600020600085815260200190815260200160002060000160006101000a81548173ffffffffffffffffffffffffffffffffffffffff021916908373ffffffffffffffffffffffffffffffffffffffff1602179055506040518060400160405280600581526020017f6f776e656400000000000000000000000000000000000000000000000000000081525060096000868152602001908152602001600020600085815260200190815260200160002060020190805190602001906114ab9291906131e0565b506114c930838660016040518060200160405280600081525061217c565b50505050565b6114d761318f565b6008600083815260200190815260200160002060405180604001604052908160008201805461150590614a5a565b80601f016020809104026020016040519081016040528092919081815260200182805461153190614a5a565b801561157e5780601f106115535761010080835404028352916020019161157e565b820191906000526020600020905b81548152906001019060200180831161156157829003601f168201915b5050505050815260200160018201805461159790614a5a565b80601f01602080910402602001604051908101604052809291908181526020018280546115c390614a5a565b80156116105780601f106115e557610100808354040283529160200191611610565b820191906000526020600020905b8154815290600101906020018083116115f357829003601f168201915b5050505050815250509050919050565b600063bc197c8160e01b905095945050505050565b60006116687f9f2df0fed2c77648de5860a4cc508cd0818c85b8b8a1ab4ceeef8d981c8956a6611663611bd0565b611113565b6116a7576040517f08c379a000000000000000000000000000000000000000000000000000000000815260040161169e90614583565b60405180910390fd5b6116b085612401565b6116ef576040517f08c379a00000000000000000000000000000000000000000000000000000000081526004016116e6906144e3565b60405180910390fd5b61170f306007600088815260200190815260200160002054600185611fcb565b60405180606001604052803073ffffffffffffffffffffffffffffffffffffffff16815260200185858080601f016020809104026020016040519081016040528093929190818152602001838380828437600081840152601f19601f8201169050808301925050505050505081526020016040518060400160405280600681526020017f6d696e74656400000000000000000000000000000000000000000000000000008152508152506009600087815260200190815260200160002060006007600089815260200190815260200160002054815260200190815260200160002060008201518160000160006101000a81548173ffffffffffffffffffffffffffffffffffffffff021916908373ffffffffffffffffffffffffffffffffffffffff16021790555060208201518160010190805190602001906118539291906131e0565b5060408201518160020190805190602001906118709291906131e0565b5090505060076000868152602001908152602001600020600081548092919061189890614abd565b919050555060076000868152602001908152602001600020549050949350505050565b60006118d86001600084815260200190815260200160002061241f565b9050919050565b7f9f2df0fed2c77648de5860a4cc508cd0818c85b8b8a1ab4ceeef8d981c8956a681565b61190d8282612434565b6119328160016000858152602001908152602001600020611f9b90919063ffffffff16565b505050565b6000600360008473ffffffffffffffffffffffffffffffffffffffff1673ffffffffffffffffffffffffffffffffffffffff16815260200190815260200160002060008373ffffffffffffffffffffffffffffffffffffffff1673ffffffffffffffffffffffffffffffffffffffff16815260200190815260200160002060009054906101000a900460ff16905092915050565b600063f23a6e6160e01b905095945050505050565b6119e8611bd0565b73ffffffffffffffffffffffffffffffffffffffff168573ffffffffffffffffffffffffffffffffffffffff161480611a2e5750611a2d85611a28611bd0565b611937565b5b611a6d576040517f08c379a0000000000000000000000000000000000000000000000000000000008152600401611a64906144c3565b60405180910390fd5b611a7a858585858561217c565b5050505050565b611a956000801b611a90611bd0565b611113565b611ad4576040517f08c379a0000000000000000000000000000000000000000000000000000000008152600401611acb90614583565b60405180910390fd5b80600660016101000a81548173ffffffffffffffffffffffffffffffffffffffff021916908373ffffffffffffffffffffffffffffffffffffffff16021790555050565b611b22828261245d565b5050565b6000611b4e836000018373ffffffffffffffffffffffffffffffffffffffff1660001b61253d565b905092915050565b60007f4e2312e0000000000000000000000000000000000000000000000000000000007bffffffffffffffffffffffffffffffffffffffffffffffffffffffff1916827bffffffffffffffffffffffffffffffffffffffffffffffffffffffff19161480611bc95750611bc8826125ad565b5b9050919050565b600033905090565b8151835114611c1c576040517f08c379a0000000000000000000000000000000000000000000000000000000008152600401611c1390614623565b60405180910390fd5b600073ffffffffffffffffffffffffffffffffffffffff168473ffffffffffffffffffffffffffffffffffffffff161415611c8c576040517f08c379a0000000000000000000000000000000000000000000000000000000008152600401611c8390614543565b60405180910390fd5b6000611c96611bd0565b9050611ca68187878787876125bf565b60005b8451811015611e5a576000858281518110611cc757611cc6614bbd565b5b602002602001015190506000858381518110611ce657611ce5614bbd565b5b6020026020010151905060006002600084815260200190815260200160002060008b73ffffffffffffffffffffffffffffffffffffffff1673ffffffffffffffffffffffffffffffffffffffff16815260200190815260200160002054905081811015611d88576040517f08c379a0000000000000000000000000000000000000000000000000000000008152600401611d7f906145a3565b60405180910390fd5b8181036002600085815260200190815260200160002060008c73ffffffffffffffffffffffffffffffffffffffff1673ffffffffffffffffffffffffffffffffffffffff16815260200190815260200160002081905550816002600085815260200190815260200160002060008b73ffffffffffffffffffffffffffffffffffffffff1673ffffffffffffffffffffffffffffffffffffffff1681526020019081526020016000206000828254611e3f919061487f565b9250508190555050505080611e5390614abd565b9050611ca9565b508473ffffffffffffffffffffffffffffffffffffffff168673ffffffffffffffffffffffffffffffffffffffff168273ffffffffffffffffffffffffffffffffffffffff167f4a39dc06d4c0dbc64b70af90fd698a233a518aa5d07e595d983b8c0526c8f7fb8787604051611ed1929190614347565b60405180910390a4611ee78187878787876125c7565b505050505050565b611ef8826108e6565b611f0981611f04611bd0565b6127ae565b611f13838361245d565b505050565b611f20611bd0565b73ffffffffffffffffffffffffffffffffffffffff168173ffffffffffffffffffffffffffffffffffffffff1614611f8d576040517f08c379a0000000000000000000000000000000000000000000000000000000008152600401611f8490614663565b60405180910390fd5b611f97828261284b565b5050565b6000611fc3836000018373ffffffffffffffffffffffffffffffffffffffff1660001b61292c565b905092915050565b600073ffffffffffffffffffffffffffffffffffffffff168473ffffffffffffffffffffffffffffffffffffffff16141561203b576040517f08c379a000000000000000000000000000000000000000000000000000000000815260040161203290614643565b60405180910390fd5b6000612045611bd0565b90506120668160008761205788612a40565b61206088612a40565b876125bf565b826002600086815260200190815260200160002060008773ffffffffffffffffffffffffffffffffffffffff1673ffffffffffffffffffffffffffffffffffffffff16815260200190815260200160002060008282546120c6919061487f565b925050819055508473ffffffffffffffffffffffffffffffffffffffff16600073ffffffffffffffffffffffffffffffffffffffff168273ffffffffffffffffffffffffffffffffffffffff167fc3d58168c5ae7397731d063d5bbf3d657854427343f4c083240f7aacaa2d0f6287876040516121449291906146e2565b60405180910390a461215b81600087878787612aba565b5050505050565b60006121718360000183612ca1565b60001c905092915050565b600073ffffffffffffffffffffffffffffffffffffffff168473ffffffffffffffffffffffffffffffffffffffff1614156121ec576040517f08c379a00000000000000000000000000000000000000000000000000000000081526004016121e390614543565b60405180910390fd5b60006121f6611bd0565b905061221681878761220788612a40565b61221088612a40565b876125bf565b60006002600086815260200190815260200160002060008873ffffffffffffffffffffffffffffffffffffffff1673ffffffffffffffffffffffffffffffffffffffff168152602001908152602001600020549050838110156122ae576040517f08c379a00000000000000000000000000000000000000000000000000000000081526004016122a5906145a3565b60405180910390fd5b8381036002600087815260200190815260200160002060008973ffffffffffffffffffffffffffffffffffffffff1673ffffffffffffffffffffffffffffffffffffffff16815260200190815260200160002081905550836002600087815260200190815260200160002060008873ffffffffffffffffffffffffffffffffffffffff1673ffffffffffffffffffffffffffffffffffffffff1681526020019081526020016000206000828254612365919061487f565b925050819055508573ffffffffffffffffffffffffffffffffffffffff168773ffffffffffffffffffffffffffffffffffffffff168373ffffffffffffffffffffffffffffffffffffffff167fc3d58168c5ae7397731d063d5bbf3d657854427343f4c083240f7aacaa2d0f6288886040516123e29291906146e2565b60405180910390a46123f8828888888888612aba565b50505050505050565b6000600660009054906101000a900460ff1660ff1682109050919050565b600061242d82600001612ccc565b9050919050565b61243d826108e6565b61244e81612449611bd0565b6127ae565b612458838361284b565b505050565b6124678282611113565b61253957600160008084815260200190815260200160002060000160008373ffffffffffffffffffffffffffffffffffffffff1673ffffffffffffffffffffffffffffffffffffffff16815260200190815260200160002060006101000a81548160ff0219169083151502179055506124de611bd0565b73ffffffffffffffffffffffffffffffffffffffff168173ffffffffffffffffffffffffffffffffffffffff16837f2f8788117e7eff1d82e926ec794901d17c78024a50270940304540a733656f0d60405160405180910390a45b5050565b60006125498383612cdd565b6125a25782600001829080600181540180825580915050600190039060005260206000200160009091909190915055826000018054905083600101600084815260200190815260200160002081905550600190506125a7565b600090505b92915050565b60006125b882612d00565b9050919050565b505050505050565b6125e68473ffffffffffffffffffffffffffffffffffffffff16612de2565b156127a6578373ffffffffffffffffffffffffffffffffffffffff1663bc197c8187878686866040518663ffffffff1660e01b815260040161262c959493929190614241565b602060405180830381600087803b15801561264657600080fd5b505af192505050801561267757506040513d601f19601f8201168201806040525081019061267491906138ea565b60015b61271d57612683614c1b565b806308c379a014156126e057506126986151e7565b806126a357506126e2565b806040517f08c379a00000000000000000000000000000000000000000000000000000000081526004016126d79190614421565b60405180910390fd5b505b6040517f08c379a000000000000000000000000000000000000000000000000000000000815260040161271490614443565b60405180910390fd5b63bc197c8160e01b7bffffffffffffffffffffffffffffffffffffffffffffffffffffffff1916817bffffffffffffffffffffffffffffffffffffffffffffffffffffffff1916146127a4576040517f08c379a000000000000000000000000000000000000000000000000000000000815260040161279b90614483565b60405180910390fd5b505b505050505050565b6127b88282611113565b612847576127dd8173ffffffffffffffffffffffffffffffffffffffff166014612df5565b6127eb8360001c6020612df5565b6040516020016127fc9291906141ec565b6040516020818303038152906040526040517f08c379a000000000000000000000000000000000000000000000000000000000815260040161283e9190614421565b60405180910390fd5b5050565b6128558282611113565b1561292857600080600084815260200190815260200160002060000160008373ffffffffffffffffffffffffffffffffffffffff1673ffffffffffffffffffffffffffffffffffffffff16815260200190815260200160002060006101000a81548160ff0219169083151502179055506128cd611bd0565b73ffffffffffffffffffffffffffffffffffffffff168173ffffffffffffffffffffffffffffffffffffffff16837ff6391f5c32d9c69d2a47ea670b442974b53935d1edc7fd64eb21e047a839171b60405160405180910390a45b5050565b60008083600101600084815260200190815260200160002054905060008114612a3457600060018261295e919061492f565b9050600060018660000180549050612976919061492f565b90508181146129e557600086600001828154811061299757612996614bbd565b5b90600052602060002001549050808760000184815481106129bb576129ba614bbd565b5b90600052602060002001819055508387600101600083815260200190815260200160002081905550505b856000018054806129f9576129f8614b8e565b5b600190038181906000526020600020016000905590558560010160008681526020019081526020016000206000905560019350505050612a3a565b60009150505b92915050565b60606000600167ffffffffffffffff811115612a5f57612a5e614bec565b5b604051908082528060200260200182016040528015612a8d5781602001602082028036833780820191505090505b5090508281600081518110612aa557612aa4614bbd565b5b60200260200101818152505080915050919050565b612ad98473ffffffffffffffffffffffffffffffffffffffff16612de2565b15612c99578373ffffffffffffffffffffffffffffffffffffffff1663f23a6e6187878686866040518663ffffffff1660e01b8152600401612b1f9594939291906142a9565b602060405180830381600087803b158015612b3957600080fd5b505af1925050508015612b6a57506040513d601f19601f82011682018060405250810190612b6791906138ea565b60015b612c1057612b76614c1b565b806308c379a01415612bd35750612b8b6151e7565b80612b965750612bd5565b806040517f08c379a0000000000000000000000000000000000000000000000000000000008152600401612bca9190614421565b60405180910390fd5b505b6040517f08c379a0000000000000000000000000000000000000000000000000000000008152600401612c0790614443565b60405180910390fd5b63f23a6e6160e01b7bffffffffffffffffffffffffffffffffffffffffffffffffffffffff1916817bffffffffffffffffffffffffffffffffffffffffffffffffffffffff191614612c97576040517f08c379a0000000000000000000000000000000000000000000000000000000008152600401612c8e90614483565b60405180910390fd5b505b505050505050565b6000826000018281548110612cb957612cb8614bbd565b5b9060005260206000200154905092915050565b600081600001805490509050919050565b600080836001016000848152602001908152602001600020541415905092915050565b60007fd9b67a26000000000000000000000000000000000000000000000000000000007bffffffffffffffffffffffffffffffffffffffffffffffffffffffff1916827bffffffffffffffffffffffffffffffffffffffffffffffffffffffff19161480612dcb57507f0e89341c000000000000000000000000000000000000000000000000000000007bffffffffffffffffffffffffffffffffffffffffffffffffffffffff1916827bffffffffffffffffffffffffffffffffffffffffffffffffffffffff1916145b80612ddb5750612dda82613031565b5b9050919050565b600080823b905060008111915050919050565b606060006002836002612e0891906148d5565b612e12919061487f565b67ffffffffffffffff811115612e2b57612e2a614bec565b5b6040519080825280601f01601f191660200182016040528015612e5d5781602001600182028036833780820191505090505b5090507f300000000000000000000000000000000000000000000000000000000000000081600081518110612e9557612e94614bbd565b5b60200101907effffffffffffffffffffffffffffffffffffffffffffffffffffffffffffff1916908160001a9053507f780000000000000000000000000000000000000000000000000000000000000081600181518110612ef957612ef8614bbd565b5b60200101907effffffffffffffffffffffffffffffffffffffffffffffffffffffffffffff1916908160001a90535060006001846002612f3991906148d5565b612f43919061487f565b90505b6001811115612fe3577f3031323334353637383961626364656600000000000000000000000000000000600f861660108110612f8557612f84614bbd565b5b1a60f81b828281518110612f9c57612f9b614bbd565b5b60200101907effffffffffffffffffffffffffffffffffffffffffffffffffffffffffffff1916908160001a905350600485901c945080612fdc90614a30565b9050612f46565b5060008414613027576040517f08c379a000000000000000000000000000000000000000000000000000000000815260040161301e90614463565b60405180910390fd5b8091505092915050565b60007f5a05180f000000000000000000000000000000000000000000000000000000007bffffffffffffffffffffffffffffffffffffffffffffffffffffffff1916827bffffffffffffffffffffffffffffffffffffffffffffffffffffffff191614806130a457506130a3826130ab565b5b9050919050565b60007f7965db0b000000000000000000000000000000000000000000000000000000007bffffffffffffffffffffffffffffffffffffffffffffffffffffffff1916827bffffffffffffffffffffffffffffffffffffffffffffffffffffffff1916148061311e575061311d82613125565b5b9050919050565b60007f01ffc9a7000000000000000000000000000000000000000000000000000000007bffffffffffffffffffffffffffffffffffffffffffffffffffffffff1916827bffffffffffffffffffffffffffffffffffffffffffffffffffffffff1916149050919050565b604051806040016040528060608152602001606081525090565b6040518060600160405280600073ffffffffffffffffffffffffffffffffffffffff16815260200160608152602001606081525090565b8280546131ec90614a5a565b90600052602060002090601f01602090048101928261320e5760008555613255565b82601f1061322757805160ff1916838001178555613255565b82800160010185558215613255579182015b82811115613254578251825591602001919060010190613239565b5b5090506132629190613266565b5090565b5b8082111561327f576000816000905550600101613267565b5090565b600061329661329184614730565b61470b565b905080838252602082019050828560208602820111156132b9576132b8614c47565b5b60005b858110156132e957816132cf88826133a5565b8452602084019350602083019250506001810190506132bc565b5050509392505050565b60006133066133018461475c565b61470b565b9050808382526020820190508285602086028201111561332957613328614c47565b5b60005b85811015613359578161333f8882613503565b84526020840193506020830192505060018101905061332c565b5050509392505050565b600061337661337184614788565b61470b565b90508281526020810184848401111561339257613391614c4c565b5b61339d8482856149ee565b509392505050565b6000813590506133b48161527d565b92915050565b600082601f8301126133cf576133ce614c42565b5b81356133df848260208601613283565b91505092915050565b600082601f8301126133fd576133fc614c42565b5b813561340d8482602086016132f3565b91505092915050565b60008135905061342581615294565b92915050565b60008135905061343a816152ab565b92915050565b60008151905061344f816152ab565b92915050565b600081359050613464816152c2565b92915050565b600081519050613479816152c2565b92915050565b600082601f83011261349457613493614c42565b5b81356134a4848260208601613363565b91505092915050565b60008083601f8401126134c3576134c2614c42565b5b8235905067ffffffffffffffff8111156134e0576134df614c3d565b5b6020830191508360018202830111156134fc576134fb614c47565b5b9250929050565b600081359050613512816152d9565b92915050565b60006020828403121561352e5761352d614c56565b5b600061353c848285016133a5565b91505092915050565b6000806040838503121561355c5761355b614c56565b5b600061356a858286016133a5565b925050602061357b858286016133a5565b9150509250929050565b600080600080600060a086880312156135a1576135a0614c56565b5b60006135af888289016133a5565b95505060206135c0888289016133a5565b945050604086013567ffffffffffffffff8111156135e1576135e0614c51565b5b6135ed888289016133e8565b935050606086013567ffffffffffffffff81111561360e5761360d614c51565b5b61361a888289016133e8565b925050608086013567ffffffffffffffff81111561363b5761363a614c51565b5b6136478882890161347f565b9150509295509295909350565b600080600080600060a086880312156136705761366f614c56565b5b600061367e888289016133a5565b955050602061368f888289016133a5565b94505060406136a088828901613503565b93505060606136b188828901613503565b925050608086013567ffffffffffffffff8111156136d2576136d1614c51565b5b6136de8882890161347f565b9150509295509295909350565b6000806040838503121561370257613701614c56565b5b6000613710858286016133a5565b925050602061372185828601613416565b9150509250929050565b6000806040838503121561374257613741614c56565b5b6000613750858286016133a5565b925050602061376185828601613503565b9150509250929050565b6000806040838503121561378257613781614c56565b5b600083013567ffffffffffffffff8111156137a05761379f614c51565b5b6137ac858286016133ba565b925050602083013567ffffffffffffffff8111156137cd576137cc614c51565b5b6137d9858286016133e8565b9150509250929050565b6000602082840312156137f9576137f8614c56565b5b60006138078482850161342b565b91505092915050565b60006020828403121561382657613825614c56565b5b600061383484828501613440565b91505092915050565b6000806040838503121561385457613853614c56565b5b60006138628582860161342b565b9250506020613873858286016133a5565b9150509250929050565b6000806040838503121561389457613893614c56565b5b60006138a28582860161342b565b92505060206138b385828601613503565b9150509250929050565b6000602082840312156138d3576138d2614c56565b5b60006138e184828501613455565b91505092915050565b600060208284031215613900576138ff614c56565b5b600061390e8482850161346a565b91505092915050565b60008060008060006060868803121561393357613932614c56565b5b600086013567ffffffffffffffff81111561395157613950614c51565b5b61395d888289016134ad565b9550955050602086013567ffffffffffffffff8111156139805761397f614c51565b5b61398c888289016134ad565b9350935050604086013567ffffffffffffffff8111156139af576139ae614c51565b5b6139bb8882890161347f565b9150509295509295909350565b600080600080600080606087890312156139e5576139e4614c56565b5b600087013567ffffffffffffffff811115613a0357613a02614c51565b5b613a0f89828a016134ad565b9650965050602087013567ffffffffffffffff811115613a3257613a31614c51565b5b613a3e89828a016134ad565b9450945050604087013567ffffffffffffffff811115613a6157613a60614c51565b5b613a6d89828a016134ad565b92509250509295509295509295565b600060208284031215613a9257613a91614c56565b5b6000613aa084828501613503565b91505092915050565b60008060008060608587031215613ac357613ac2614c56565b5b6000613ad187828801613503565b945050602085013567ffffffffffffffff811115613af257613af1614c51565b5b613afe878288016134ad565b9350935050604085013567ffffffffffffffff811115613b2157613b20614c51565b5b613b2d8782880161347f565b91505092959194509250565b60008060408385031215613b5057613b4f614c56565b5b6000613b5e85828601613503565b9250506020613b6f85828601613503565b9150509250929050565b60008060008060808587031215613b9357613b92614c56565b5b6000613ba187828801613503565b9450506020613bb287828801613503565b9350506040613bc3878288016133a5565b9250506060613bd487828801613416565b91505092959194509250565b6000613bec83836140ef565b905092915050565b6000613c0083836141ce565b60208301905092915050565b613c1581614963565b82525050565b613c2481614963565b82525050565b6000613c35826147d9565b613c3f818561481f565b935083602082028501613c51856147b9565b8060005b85811015613c8d5784840389528151613c6e8582613be0565b9450613c7983614805565b925060208a01995050600181019050613c55565b50829750879550505050505092915050565b6000613caa826147e4565b613cb48185614830565b9350613cbf836147c9565b8060005b83811015613cf0578151613cd78882613bf4565b9750613ce283614812565b925050600181019050613cc3565b5085935050505092915050565b613d0681614975565b82525050565b613d1581614981565b82525050565b613d248161498b565b82525050565b6000613d35826147ef565b613d3f8185614841565b9350613d4f8185602086016149fd565b613d5881614c5b565b840191505092915050565b6000613d6f8385614863565b9350613d7c8385846149ee565b613d8583614c5b565b840190509392505050565b6000613d9b826147fa565b613da58185614852565b9350613db58185602086016149fd565b613dbe81614c5b565b840191505092915050565b6000613dd4826147fa565b613dde8185614863565b9350613dee8185602086016149fd565b613df781614c5b565b840191505092915050565b6000613e0d826147fa565b613e178185614874565b9350613e278185602086016149fd565b80840191505092915050565b6000613e40603483614863565b9150613e4b82614c79565b604082019050919050565b6000613e63602083614863565b9150613e6e82614cc8565b602082019050919050565b6000613e86602883614863565b9150613e9182614cf1565b604082019050919050565b6000613ea9602b83614863565b9150613eb482614d40565b604082019050919050565b6000613ecc602983614863565b9150613ed782614d8f565b604082019050919050565b6000613eef601783614863565b9150613efa82614dde565b602082019050919050565b6000613f12601383614863565b9150613f1d82614e07565b602082019050919050565b6000613f35602f83614863565b9150613f4082614e30565b604082019050919050565b6000613f58602583614863565b9150613f6382614e7f565b604082019050919050565b6000613f7b603283614863565b9150613f8682614ece565b604082019050919050565b6000613f9e603883614863565b9150613fa982614f1d565b604082019050919050565b6000613fc1602a83614863565b9150613fcc82614f6c565b604082019050919050565b6000613fe4603983614863565b9150613fef82614fbb565b604082019050919050565b6000614007601783614874565b91506140128261500a565b601782019050919050565b600061402a602983614863565b915061403582615033565b604082019050919050565b600061404d602983614863565b915061405882615082565b604082019050919050565b6000614070602883614863565b915061407b826150d1565b604082019050919050565b6000614093602183614863565b915061409e82615120565b604082019050919050565b60006140b6601183614874565b91506140c18261516f565b601182019050919050565b60006140d9602f83614863565b91506140e482615198565b604082019050919050565b6000604083016000830151848203600086015261410c8282613d90565b915050602083015184820360208601526141268282613d90565b9150508091505092915050565b600060408301600083015184820360008601526141508282613d90565b9150506020830151848203602086015261416a8282613d90565b9150508091505092915050565b600060608301600083015161418f6000860182613c0c565b50602083015184820360208601526141a78282613d90565b915050604083015184820360408601526141c18282613d90565b9150508091505092915050565b6141d7816149d7565b82525050565b6141e6816149d7565b82525050565b60006141f782613ffa565b91506142038285613e02565b915061420e826140a9565b915061421a8284613e02565b91508190509392505050565b600060208201905061423b6000830184613c1b565b92915050565b600060a0820190506142566000830188613c1b565b6142636020830187613c1b565b81810360408301526142758186613c9f565b905081810360608301526142898185613c9f565b9050818103608083015261429d8184613d2a565b90509695505050505050565b600060a0820190506142be6000830188613c1b565b6142cb6020830187613c1b565b6142d860408301866141dd565b6142e560608301856141dd565b81810360808301526142f78184613d2a565b90509695505050505050565b6000602082019050818103600083015261431d8184613c2a565b905092915050565b6000602082019050818103600083015261433f8184613c9f565b905092915050565b600060408201905081810360008301526143618185613c9f565b905081810360208301526143758184613c9f565b90509392505050565b60006020820190506143936000830184613cfd565b92915050565b60006020820190506143ae6000830184613d0c565b92915050565b60006020820190506143c96000830184613d1b565b92915050565b600060608201905081810360008301526143ea81888a613d63565b905081810360208301526143ff818688613d63565b90508181036040830152614414818486613d63565b9050979650505050505050565b6000602082019050818103600083015261443b8184613dc9565b905092915050565b6000602082019050818103600083015261445c81613e33565b9050919050565b6000602082019050818103600083015261447c81613e56565b9050919050565b6000602082019050818103600083015261449c81613e79565b9050919050565b600060208201905081810360008301526144bc81613e9c565b9050919050565b600060208201905081810360008301526144dc81613ebf565b9050919050565b600060208201905081810360008301526144fc81613ee2565b9050919050565b6000602082019050818103600083015261451c81613f05565b9050919050565b6000602082019050818103600083015261453c81613f28565b9050919050565b6000602082019050818103600083015261455c81613f4b565b9050919050565b6000602082019050818103600083015261457c81613f6e565b9050919050565b6000602082019050818103600083015261459c81613f91565b9050919050565b600060208201905081810360008301526145bc81613fb4565b9050919050565b600060208201905081810360008301526145dc81613fd7565b9050919050565b600060208201905081810360008301526145fc8161401d565b9050919050565b6000602082019050818103600083015261461c81614040565b9050919050565b6000602082019050818103600083015261463c81614063565b9050919050565b6000602082019050818103600083015261465c81614086565b9050919050565b6000602082019050818103600083015261467c816140cc565b9050919050565b6000602082019050818103600083015261469d8184614133565b905092915050565b600060208201905081810360008301526146bf8184614177565b905092915050565b60006020820190506146dc60008301846141dd565b92915050565b60006040820190506146f760008301856141dd565b61470460208301846141dd565b9392505050565b6000614715614726565b90506147218282614a8c565b919050565b6000604051905090565b600067ffffffffffffffff82111561474b5761474a614bec565b5b602082029050602081019050919050565b600067ffffffffffffffff82111561477757614776614bec565b5b602082029050602081019050919050565b600067ffffffffffffffff8211156147a3576147a2614bec565b5b6147ac82614c5b565b9050602081019050919050565b6000819050602082019050919050565b6000819050602082019050919050565b600081519050919050565b600081519050919050565b600081519050919050565b600081519050919050565b6000602082019050919050565b6000602082019050919050565b600082825260208201905092915050565b600082825260208201905092915050565b600082825260208201905092915050565b600082825260208201905092915050565b600082825260208201905092915050565b600081905092915050565b600061488a826149d7565b9150614895836149d7565b9250827fffffffffffffffffffffffffffffffffffffffffffffffffffffffffffffffff038211156148ca576148c9614b30565b5b828201905092915050565b60006148e0826149d7565b91506148eb836149d7565b9250817fffffffffffffffffffffffffffffffffffffffffffffffffffffffffffffffff048311821515161561492457614923614b30565b5b828202905092915050565b600061493a826149d7565b9150614945836149d7565b92508282101561495857614957614b30565b5b828203905092915050565b600061496e826149b7565b9050919050565b60008115159050919050565b6000819050919050565b60007fffffffff0000000000000000000000000000000000000000000000000000000082169050919050565b600073ffffffffffffffffffffffffffffffffffffffff82169050919050565b6000819050919050565b600060ff82169050919050565b82818337600083830152505050565b60005b83811015614a1b578082015181840152602081019050614a00565b83811115614a2a576000848401525b50505050565b6000614a3b826149d7565b91506000821415614a4f57614a4e614b30565b5b600182039050919050565b60006002820490506001821680614a7257607f821691505b60208210811415614a8657614a85614b5f565b5b50919050565b614a9582614c5b565b810181811067ffffffffffffffff82111715614ab457614ab3614bec565b5b80604052505050565b6000614ac8826149d7565b91507fffffffffffffffffffffffffffffffffffffffffffffffffffffffffffffffff821415614afb57614afa614b30565b5b600182019050919050565b6000614b11826149e1565b915060ff821415614b2557614b24614b30565b5b600182019050919050565b7f4e487b7100000000000000000000000000000000000000000000000000000000600052601160045260246000fd5b7f4e487b7100000000000000000000000000000000000000000000000000000000600052602260045260246000fd5b7f4e487b7100000000000000000000000000000000000000000000000000000000600052603160045260246000fd5b7f4e487b7100000000000000000000000000000000000000000000000000000000600052603260045260246000fd5b7f4e487b7100000000000000000000000000000000000000000000000000000000600052604160045260246000fd5b600060033d1115614c3a5760046000803e614c37600051614c6c565b90505b90565b600080fd5b600080fd5b600080fd5b600080fd5b600080fd5b600080fd5b6000601f19601f8301169050919050565b60008160e01c9050919050565b7f455243313135353a207472616e7366657220746f206e6f6e204552433131353560008201527f526563656976657220696d706c656d656e746572000000000000000000000000602082015250565b7f537472696e67733a20686578206c656e67746820696e73756666696369656e74600082015250565b7f455243313135353a204552433131353552656365697665722072656a6563746560008201527f6420746f6b656e73000000000000000000000000000000000000000000000000602082015250565b7f455243313135353a2062616c616e636520717565727920666f7220746865207a60008201527f65726f2061646472657373000000000000000000000000000000000000000000602082015250565b7f455243313135353a2063616c6c6572206973206e6f74206f776e6572206e6f7260008201527f20617070726f7665640000000000000000000000000000000000000000000000602082015250565b7f54686520746f6b656e20646f206e6f7420657869737473000000000000000000600082015250565b7f566572696669636174696f6e206661696c656400000000000000000000000000600082015250565b7f596f7520646f6e2774206861766520746865207065726d697373696f6e20746f60008201527f2067697665206f776e6572736869700000000000000000000000000000000000602082015250565b7f455243313135353a207472616e7366657220746f20746865207a65726f20616460008201527f6472657373000000000000000000000000000000000000000000000000000000602082015250565b7f455243313135353a207472616e736665722063616c6c6572206973206e6f742060008201527f6f776e6572206e6f7220617070726f7665640000000000000000000000000000602082015250565b7f455243313135355072657365744d696e7465725061757365723a206d7573742060008201527f68617665206d696e74657220726f6c6520746f206d696e740000000000000000602082015250565b7f455243313135353a20696e73756666696369656e742062616c616e636520666f60008201527f72207472616e7366657200000000000000000000000000000000000000000000602082015250565b7f596f75206e65656420746f20736574757020746865207665726966696361746960008201527f6f6e20636f6e7472616374206164647265737320666972737400000000000000602082015250565b7f416363657373436f6e74726f6c3a206163636f756e7420000000000000000000600082015250565b7f455243313135353a2073657474696e6720617070726f76616c2073746174757360008201527f20666f722073656c660000000000000000000000000000000000000000000000602082015250565b7f455243313135353a206163636f756e747320616e6420696473206c656e67746860008201527f206d69736d617463680000000000000000000000000000000000000000000000602082015250565b7f455243313135353a2069647320616e6420616d6f756e7473206c656e6774682060008201527f6d69736d61746368000000000000000000000000000000000000000000000000602082015250565b7f455243313135353a206d696e7420746f20746865207a65726f2061646472657360008201527f7300000000000000000000000000000000000000000000000000000000000000602082015250565b7f206973206d697373696e6720726f6c6520000000000000000000000000000000600082015250565b7f416363657373436f6e74726f6c3a2063616e206f6e6c792072656e6f756e636560008201527f20726f6c657320666f722073656c660000000000000000000000000000000000602082015250565b600060443d10156151f75761527a565b6151ff614726565b60043d036004823e80513d602482011167ffffffffffffffff8211171561522757505061527a565b808201805167ffffffffffffffff811115615245575050505061527a565b80602083010160043d03850181111561526257505050505061527a565b61527182602001850186614a8c565b82955050505050505b90565b61528681614963565b811461529157600080fd5b50565b61529d81614975565b81146152a857600080fd5b50565b6152b481614981565b81146152bf57600080fd5b50565b6152cb8161498b565b81146152d657600080fd5b50565b6152e2816149d7565b81146152ed57600080fd5b5056fea264697066735822122073c3f8b6b337969b00c210ddeaef88748c55a6dbd5ee0a558de3e0579958d98164736f6c63430008070033",
  "immutableReferences": {},
  "source": "pragma solidity ^0.8.7;\r\n\r\nimport \"./interfaces/INFCool.sol\";\r\nimport \"./interfaces/IPhoneVerification.sol\";\r\nimport \"./ERC1155Access.sol\";\r\nimport \"@openzeppelin/contracts/token/ERC1155/utils/ERC1155Holder.sol\";\r\n\r\ncontract NFCool is INFCool, ERC1155Access, ERC1155Holder {\r\n    string brandName;\r\n    uint8 tokensCount;\r\n\r\n    address private _verificationContract;\r\n\r\n    mapping (uint256 => uint256) private _tokenUnitsCount;\r\n    mapping(uint256 => TokenData) private _tokenData;\r\n    mapping(uint256 => mapping(uint256 => TokenUnitData)) private _tokenUnitData;\r\n\r\n    constructor(string memory _brandName) ERC1155Access(\"\") {\r\n        brandName = _brandName;\r\n    }\r\n\r\n    function _setTokenURI(uint256 tokenId, string memory _tokenURI) internal virtual {\r\n        _tokenData[tokenId].uri = _tokenURI;\r\n    }\r\n\r\n    function _exists(uint256 tokenId) private view returns (bool) {\r\n        return tokenId < tokensCount;\r\n    }\r\n\r\n    function getAllTokens() public view virtual override returns (TokenData[] memory) {\r\n        TokenData[] memory tokens = new TokenData[](tokensCount);\r\n\r\n        for (uint256 i = 0 ; i < tokensCount ; i++) {\r\n            tokens[i] = _tokenData[i];\r\n        }\r\n\r\n        return tokens;\r\n    }\r\n\r\n    function getTokensCount() public view virtual override returns (uint256) {\r\n        return tokensCount;\r\n    }\r\n\r\n    function tokenData(uint256 tokenId) public view virtual override returns (TokenData memory) {\r\n        return _tokenData[tokenId];\r\n    }\r\n\r\n    function tokenUnitData(uint256 tokenId, uint256 tokenUnitId) public view virtual override returns (TokenUnitData memory) {\r\n        return _tokenUnitData[tokenId][tokenUnitId];\r\n    }\r\n\r\n    function mintToken(string calldata tokenUri, string calldata tokenName, bytes memory data) external virtual override returns (uint256) {\r\n        require(hasRole(MINTER_ROLE, _msgSender()), \"ERC1155PresetMinterPauser: must have minter role to mint\");\r\n\r\n        _mint(address(this), tokensCount, 0, data);\r\n        _tokenData[tokensCount] = TokenData(tokenUri, tokenName);\r\n\r\n        tokensCount++;\r\n        return tokensCount;\r\n    }\r\n\r\n    function mintTokenUnit(uint256 tokenId, string calldata nfcId, bytes memory data) external virtual override returns (uint256) {\r\n        require(hasRole(MINTER_ROLE, _msgSender()), \"ERC1155PresetMinterPauser: must have minter role to mint\");\r\n        require(_exists(tokenId), \"The token do not exists\");\r\n\r\n        _mint(address(this), _tokenUnitsCount[tokenId], 1, data);\r\n        _tokenUnitData[tokenId][_tokenUnitsCount[tokenId]] = TokenUnitData(address(this), nfcId, \"minted\");\r\n\r\n        _tokenUnitsCount[tokenId]++;\r\n        return _tokenUnitsCount[tokenId];\r\n    }\r\n\r\n    function requestOwnership(string calldata _tokenId, string calldata _unitId, string calldata _to) external virtual override returns (bytes32 requestId) {\r\n        require(_verificationContract != address(0), \"You need to setup the verification contract address first\");\r\n\r\n        return IPhoneVerification(_verificationContract).requestOwnership(_tokenId, _unitId, _to);\r\n    }\r\n\r\n    function giveOwnership(uint256 _tokenId, uint256 _unitId, address _to, bool _valid) external virtual override {\r\n        require(msg.sender == _verificationContract, \"You don't have the permission to give ownership\");\r\n        require(_valid, \"Verification failed\");\r\n\r\n        _tokenUnitData[_tokenId][_unitId].owner = _to;\r\n        _tokenUnitData[_tokenId][_unitId].status = \"owned\";\r\n        _safeTransferFrom(address(this), _to, _tokenId, 1, '');\r\n    }\r\n\r\n    function setVerificationContract(address _contract) external virtual override {\r\n        require(hasRole(DEFAULT_ADMIN_ROLE, _msgSender()), \"ERC1155PresetMinterPauser: must have minter role to mint\");\r\n        _verificationContract = _contract;\r\n    }\r\n\r\n    function supportsInterface(bytes4 interfaceId) public view virtual override(ERC1155Access, ERC1155Receiver) returns (bool) {\r\n        return super.supportsInterface(interfaceId);\r\n    }\r\n}\r\n",
  "sourcePath": "C:\\Users\\smlvi\\WebstormProjects\\nfcool-smart-contracts\\contracts\\NFCool.sol",
  "compiler": {
    "name": "solc",
    "version": "0.8.7+commit.e28d00a7.Emscripten.clang"
  },
  "schemaVersion": "3.4.3",
  "updatedAt": "2021-11-13T14:54:43.953Z",
  "devdoc": {
    "kind": "dev",
    "methods": {
      "balanceOf(address,uint256)": {
        "details": "See {IERC1155-balanceOf}. Requirements: - `account` cannot be the zero address."
      },
      "balanceOfBatch(address[],uint256[])": {
        "details": "See {IERC1155-balanceOfBatch}. Requirements: - `accounts` and `ids` must have the same length."
      },
      "getRoleAdmin(bytes32)": {
        "details": "Returns the admin role that controls `role`. See {grantRole} and {revokeRole}. To change a role's admin, use {_setRoleAdmin}."
      },
      "getRoleMember(bytes32,uint256)": {
        "details": "Returns one of the accounts that have `role`. `index` must be a value between 0 and {getRoleMemberCount}, non-inclusive. Role bearers are not sorted in any particular way, and their ordering may change at any point. WARNING: When using {getRoleMember} and {getRoleMemberCount}, make sure you perform all queries on the same block. See the following https://forum.openzeppelin.com/t/iterating-over-elements-on-enumerableset-in-openzeppelin-contracts/2296[forum post] for more information."
      },
      "getRoleMemberCount(bytes32)": {
        "details": "Returns the number of accounts that have `role`. Can be used together with {getRoleMember} to enumerate all bearers of a role."
      },
      "grantRole(bytes32,address)": {
        "details": "Overload {grantRole} to track enumerable memberships"
      },
      "hasRole(bytes32,address)": {
        "details": "Returns `true` if `account` has been granted `role`."
      },
      "isApprovedForAll(address,address)": {
        "details": "See {IERC1155-isApprovedForAll}."
      },
      "renounceRole(bytes32,address)": {
        "details": "Overload {renounceRole} to track enumerable memberships"
      },
      "revokeRole(bytes32,address)": {
        "details": "Overload {revokeRole} to track enumerable memberships"
      },
      "safeBatchTransferFrom(address,address,uint256[],uint256[],bytes)": {
        "details": "See {IERC1155-safeBatchTransferFrom}."
      },
      "safeTransferFrom(address,address,uint256,uint256,bytes)": {
        "details": "See {IERC1155-safeTransferFrom}."
      },
      "setApprovalForAll(address,bool)": {
        "details": "See {IERC1155-setApprovalForAll}."
      },
      "uri(uint256)": {
        "details": "See {IERC1155MetadataURI-uri}. This implementation returns the same URI for *all* token types. It relies on the token type ID substitution mechanism https://eips.ethereum.org/EIPS/eip-1155#metadata[defined in the EIP]. Clients calling this function must replace the `\\{id\\}` substring with the actual token type ID."
      }
    },
    "version": 1
  },
  "userdoc": {
    "kind": "user",
    "methods": {},
    "version": 1
  }
}